:020000040800F2
:10000000D0FA00203103000891960008116700081B
:100010008D9600088F1A0008A1C600080000000095
:100020000000000000000000000000007102000855
:100030001126000800000000CD020008BD9F000846
:100040004B0300084B0300084B0300084B03000858
:100050004B0300084B030008132600084B0300085D
:100060004B0300081D260008272600084B03000844
:100070004B0300084B0300084B0300084B03000828
:100080004B0300084B0300084B0300084B03000818
:10009000951A00084B0300084B030008312600089E
:1000A0004B0300084B0300084B0300084B030008F8
:1000B0004B0300084B0300084B0300084B030008E8
:1000C0004B0300084B0300084B0300084B030008D8
:1000D0004B03000831AA00084B03000841AA00089E
:1000E0004B0300084B0300084B0300084B030008B8
:1000F0004B0300084B0300084B0300085D22000877
:100100004B0300084B0300084B0300084B03000897
:100110004B0300084B0300084B0300084B03000887
:100120004B030008D92200084B0300084B030008CA
:100130004B0300084B0300084B0300084B03000867
:10014000A51A00084B0300084B0300086599000836
:10015000E9220008F92200080923000871AB000811
:100160004B0300084B0300084B0300084B03000837
:100170004B0300084B0300084B030008000000007D
:100180004B0300084B03000800F002F800F060F891
:100190000AA090E8000C82448344AAF10107DA45E2
:1001A00001D100F055F8AFF2090EBAE80F0013F0D4
:1001B000010F18BFFB1A43F00103184744C70100A1
:1001C00064C701000A444FF0000C10F8013B13F023
:1001D000070408BF10F8014B1D1108BF10F8015BA0
:1001E000641E05D010F8016B641E01F8016BF9D193
:1001F00013F0080F1EBF10F8014BAD1C0C1B09D1EA
:100200006D1E58BF01F801CBFAD505E014F8016B5B
:1002100001F8016B6D1EF9D59142D6D370470000ED
:100220000023002400250026103A28BF78C1FBD8FF
:10023000520728BF30C148BF0B6070471FB51BF085
:10024000F7F89DE8030000F089FF1FBD10B510BD51
:1002500001F008F81146FFF7F1FF14F03FF901F043
:1002600026F803B4FFF7F2FF03BC01F05DF80000CD
:100270002C4B19680868B0E8F04F80F30988BFF389
:100280006F8F4FF0000080F311887047000000006E
:1002900008480068006880F308884FF0000080F389
:1002A000148862B661B6BFF34F8FBFF36F8F00DF64
:1002B00000BF00BF08ED00E0DFF80C00016841F46A
:1002C00070010160704700BF88ED00E0EFF3098026
:1002D000BFF36F8F134B1A681EF0100F08BF20ED8D
:1002E000108A20E9F04F106009B44FF0500080F3FD
:1002F0001188BFF34F8FBFF36F8F18F047F84FF09F
:10030000000080F3118809BC19680868B0E8F04F54
:100310001EF0100F08BFB0EC108A80F30988BFF3FD
:100320006F8F7047D0060020EFF305807047000004
:100330000948804709480047FEE7FEE7FEE7FEE779
:10034000FEE7FEE7FEE7FEE7FEE7FEE704480549B5
:10035000054A064B70470000A5A000088901000867
:10036000D0BA0020D0FA0020D0DA0020D0DA002065
:100370009FED1A1AF5EE000A40EE010ABDEEE00A02
:10038000F5EEC00A10EE100AF1EE10FA38BF401E6A
:1003900000EE100A1349F7EE001AB8EEC00A30EE6C
:1003A000C00ADFED0F0A20EE200AFCEEC00A10EEB4
:1003B000900AC0F3080000EE900A01EB8000F8EE0E
:1003C000600A90ED011A70EE600A90ED000A71EE7D
:1003D000E01A21EE800A00EE810A704783F9223E7E
:1003E000000000446CBD0108DFED190AB5EEC00A3B
:1003F00060EE200ABDEEE01A11EE100AF1EE10FADE
:1004000038BF401E00EE100A1349F7EE001AB8EE8E
:10041000C00A30EEC00ADFED0F0A60EE200ABCEE23
:10042000E00A10EE100AC0F3080000EE100A01EB1B
:100430008000B8EE400A90ED011A70EEC00A90ED0F
:10044000000A71EEE01A21EE800A00EE810A704780
:1004500083F9223E000000446CBD010870B4058899
:100460000E884468D1F804C05368B54208D140886A
:100470004988884201BF11888D425188884203D043
:1004800070BC6FF00200704705FB00F1880827D0B0
:1004900094ED001ADCED000A94ED010ADCED011A7E
:1004A00031EE201AD4ED020A70EE211A9CED020AF8
:1004B00083ED001AC3ED011A94ED031ADCED031A63
:1004C00030EE800A401E71EE210A83ED020A04F12B
:1004D0001004C3ED030A03F110030CF1100CD7D183
:1004E00011F0030030D0B0F1004F30D200282BDDE6
:1004F000211F1B1FACF1040210F0010F0AD091ED77
:10050000010AD2ED010A091D121D30EE200A83ED09
:10051000010A1B1D400817D091ED010AD2ED010A16
:10052000401E30EE200A83ED010A91ED020AD2ED61
:10053000020A01F1080102F1080230EE200A83EDFF
:10054000020A03F10803E7D170BC00207047B4EC45
:10055000010A401EFCEC010A30EE200AA3EC010A5D
:10056000F5D1F1E701804280436070472DE9F34FF8
:1005700084B0049840680090486801900498B0F8EE
:1005800000E04588DFEDFE0A00200290B0EE600A30
:10059000AE4506D108884988884204BF7146864521
:1005A00004D06FF0020006B0BDE8F08F01985FEA5A
:1005B000010C18BFB7EE001A3DD000BFBEEB0C0116
:1005C00017D0B1F1004F80F01F82002911DD021F0A
:1005D00011F0010F1CBFC2ED010A121D4B1006D015
:1005E000C2ED010AC2ED020A08325B1EF8D100EB2F
:1005F0008100BCF10102A0EC011A19D0B2F1004F48
:1006000080F00882002A13DD031F12F0010F1CBFC7
:10061000C3ED010A1B1D511008D000BFC3ED010A34
:10062000C3ED020A491E03F10803F7D100EB820073
:10063000BCF1010CC2D14FF000080395002D14BF8E
:10064000B0EE602A002000F0BF8100BF009908FBD7
:1006500005F001EB800B0199DBED002A01EB800036
:100660000346F0EE421AC64552D9AEEB0802ABEB98
:10067000850112F0010F17D001EB850191ED000A01
:10068000B5EEC00AF1EE10FA07DDB4EEE10AF1EEC4
:1006900010FA09DDF0EE401A06E0B1EE400AF4EE81
:1006A000C01AF1EE10FAF5D3521031D001EB850CDF
:1006B0009CED000AB5EEC00AF1EE10FA05DDB4EECD
:1006C000E10AF1EE10FA09DD06E0B1EE400AF4EEBF
:1006D000C01AF1EE10FA01D2F0EE401A01EBC5019A
:1006E00091ED000AB5EEC00AF1EE10FA05DDB4EEA8
:1006F000E10AF1EE10FA09DD06E0B1EE400AF4EE8F
:10070000C01AF1EE10FA01D2F0EE401A521ECDD10D
:10071000F5EEC01AF1EE10FA00F07381F5EEC02A82
:100720000126F1EE10FA0099D4BFB1EE620AB0EEE4
:10073000620AB4EE610AF1EE10FA1CBFAEEB0802D9
:10074000B2F1010C47D005FB08F201EB820292EDF9
:10075000001A00BFB0EE410A05FB06F4B5EEC00A70
:1007600000EB8404F1EE10FACCBFF0EE400AF1EE9B
:10077000400AF4EE610AF1EE10FA28D1B5EB080C4C
:1007800011D0BCF1004F7DD2BCF1000F0BDD00BFDA
:1007900092ED000AD1ED000ABCF1010CE2EC010A75
:1007A000A1EC010AF4D129000ED0B1F1004F6AD2B8
:1007B000002909DD94ED000AD0ED000A491EE4ECA1
:1007C000010AA0EC010AF5D1012002900BE0761C91
:1007D000BCF1010CBED10298012804D0F5EEC02A6C
:1007E000F1EE10FA7ED09BED000AB5EB08009A46B8
:1007F0005946064622D0B0F1004F74D200281DDDC4
:10080000091F10F0010F06D0F0EE400A80EEA01A8A
:1008100081ED011A091D401010D000BFD1ED010A71
:10082000401E80EE801A81ED011A91ED021AC1EE90
:10083000000AC1ED020A01F10801EFD1280026D01B
:10084000B0F1004F7ED2002821DDAAF1040110F0A2
:10085000010F06D0D1ED010A80EE801A81ED011A58
:10086000091D401013D000BFD1ED010A401E80EEDB
:10087000801A81ED011AD1ED020A80EE801A81ED15
:10088000021A01E0CBE0D6E001F10801ECD1DDE98C
:1008900000124FF000095FEA0E0773D0C14504BF94
:1008A00001EB860102EB850274D091ED000ADC4673
:1008B0005046330035D01C46B6F1004F7ED2002C96
:1008C0002FDD0B1FABF1040C16F0010F0FD0F0EE73
:1008D000400ADCED011AB0EE601A00EEE11A83ED79
:1008E000011A01E08DE0B1E01B1D0CF1040C741045
:1008F00015D000BFD3ED010A9CED011A40EE410A6C
:10090000C3ED010AD3ED020A9CED021A0CF1080CAA
:1009100040EE410AC3ED020A0833641EEAD101EB3E
:1009200086012B0036D0B3F1004F72D2002B31DD9F
:10093000A2F1040CAAF1040013F0010F0CD0DCEDBD
:10094000010A00E08BE090ED011A001D40EE410A23
:10095000CCED010A0CF1040C5C1019D0DCED010A9D
:1009600090ED011A40EE410ACCED010ADCED020ADD
:1009700090ED021A083040EE410ACCED020A03E085
:10098000000000000DE005E0641E0CF1080CE5D14C
:1009900002EB830201EB88017F1E09F101097FF45C
:1009A0007DAF009808F10108001D00900398401EDB
:1009B00003907FF44BAE0299012900E058E004BF98
:1009C00006B0BDE8F08F00BFB5EEC00AF1EE10FA38
:1009D0007FF4E9AD04990EFB05F3002B4A684FF054
:1009E00000010BD902EB810C9CED000AB5EEC00AA8
:1009F000F1EE10FA02D1491C8B42F3D88B427FF4FE
:100A0000D2AD6FF00400CEE5E0EC010A491EFBD147
:100A1000EFE538E0E0EC010A521EFBD108E692ED6A
:100A2000000AD1ED000ABCF1010CE2EC010AA1ECD4
:100A3000010AF4D1B7E694ED000AD0ED000A491E90
:100A4000E4EC010AA0EC010AF5D1BDE6D1ED000A03
:100A5000401E80EE801AA1EC011AF7D1EEE6D3ED2C
:100A6000000A401E80EE801AA3EC011AF7D10EE7AF
:100A7000BCEC011AD1ED000A5B1E40EE410AE1EC2C
:100A8000010AF5D14DE7B0EC011AD2ED000A5B1E68
:100A900040EE410AE2EC010AF5D17BE72DE9F04F87
:100AA00082B0466853680193058847884B880020C8
:100AB00000900888874201BFB2F800C0654552889F
:100AC00093421EBF6FF0020002B0BDE8F08F9FEDB1
:100AD000412A4FEA970EC7F3400B00BFDDE9000241
:100AE00002EB800A4A6898464FF00009B0EE420ACD
:100AF000B4465FEA0E0025D092ED001ADCED001A34
:100B000002EB8302DCED010A01EE810A92ED001A8C
:100B100002EB8302401ED2ED001A02EB830200EECC
:100B2000810A9CED021ADCED030A00040CF1100CA2
:100B3000000C01EE210A92ED001A02EB830200EE96
:100B4000810AD9D117F0030026D0ACF10404A2EB3E
:100B5000830210F0010F08D002EB8302D4ED010AEA
:100B600092ED001A241D00EE810A5FEA0B0013D0FB
:100B700002EB830CD4ED010A9CED001A02EBC302D8
:100B8000401E00EE810AD4ED020A92ED001A04F133
:100B9000080400EE810AEBD109F10100AAEC010A78
:100BA0001FFA80F9486800EB8902A8F101001FFADA
:100BB00080F8B8F1000F99D1009806EB8706184429
:100BC00080B20090681E05042D0C87D102B0002071
:100BD000BDE8F08F0000000070B405880E884468FE
:100BE000D1F804C05368B54208D14088498888428A
:100BF00001BF11888D425188884203D070BC6FF0CC
:100C00000200704705FB00F1880827D094ED001A18
:100C1000DCED000A94ED010ADCED011A31EE601AF8
:100C2000D4ED020A70EE611A9CED020A83ED001AFF
:100C3000C3ED011A94ED031ADCED031A30EEC00A7D
:100C4000401E71EE610A83ED020A04F11004C3ED47
:100C5000030A03F110030CF1100CD7D111F00300BB
:100C600030D0B0F1004F30D200282BDD211F1B1FE8
:100C7000ACF1040210F0010F0AD091ED010AD2ED9F
:100C8000010A091D121D30EE600A83ED010A1B1DC9
:100C9000400817D091ED010AD2ED010A401E30EE56
:100CA000600A83ED010A91ED020AD2ED020A01F118
:100CB000080102F1080230EE600A83ED020A03F136
:100CC0000803E7D170BC00207047B4EC010A401E55
:100CD000FCEC010A30EE600AA3EC010AF5D1F1E761
:100CE0002DE9F04F02884768B0F802804888D1F8B3
:100CF000049082B04FF0000A1646824207BF09886E
:100D000088456FF0020002B018BFBDE8F08F4FEACF
:100D1000980B02EB42000190C8F34000CDF80000B0
:100D200009EB8A01BBF1000F33D0019801EB820C73
:100D300001EB80043B46E64601EBC2054FEA0B009F
:100D400093ED000A401E81ED000A93ED010A01EBCC
:100D500002118CED000A93ED020A0CEB021C85EDEA
:100D6000000A93ED030A05EB021584ED000A04EB7B
:100D7000021403F11003E3D10EEB820000EB8200BA
:100D800000EB8201ABF10100504307EB0B1701EBC5
:100D9000001118F0030C21D03B1FA1EB82011CF0C5
:100DA000010F06D093ED010A01EB82011B1D81EDBD
:100DB000000A009880B100BF93ED010A01EB8204A4
:100DC00001EBC20184ED000A93ED020A401E81EDA1
:100DD000000A03F10803EFD107EB8C070AF10100C9
:100DE0001FFA80FA701E0604360C99D102B000205A
:100DF000BDE8F08F70B5064600F094F9056806F17D
:100E00000B0020F00704B4429CBF002070BD2B46AD
:100E10006A68BAB11068A04210D304F10801884290
:100E20003CBF5068586007D3516810194160116881
:100E3000091B016058601460101D70BD1346526894
:100E4000002AE7D12146284600F074F90028DED1B7
:100E500070BD70B50446051F00F064F90068002CF1
:100E600014BF446870BD002C18BFAC423CBF204684
:100E70006468F8D301680A18AA4218BF456003D114
:100E80002A6805461144016028684119A1421CBF27
:100E90006C6070BD6168696021680844286070BD3D
:100EA00053EA020C00F069802DE9F04B4FF0000688
:100EB000002B1FBFB3FA83F503FA05F424FA05F6F5
:100EC0005E4012BF1643B2FA82F502FA05F4C5F18C
:100ED00020051EBF22FA05FC44EA0C04203556EA20
:100EE000044C4FEA144418BF641C4FF000084FF044
:100EF0000009904271EB030C39D3002919BFB1FAF4
:100F000081F701FA07F6B0FA80F700FA07F6C7F1A1
:100F100020071EBF20FA07FC46EA0C062037B6FB66
:100F2000F4FCA7EB0507103F07F01F0BCBF12006E1
:100F30000CFA0BFB2CFA06F644BFB3460026202F12
:100F4000A4BF5E464FF0000B5BEA060C08BF4FF0F3
:100F5000010B19EB0B09ABFB027C48EB0608C01B2D
:100F600006FB02CC0BFB03CC71EB0C01C1E70B467B
:100F7000024641464846BDE8F08B13B54FF00000ED
:100F80004FF00001AFF30080BDE81C407047032A1A
:100F900040F2308010F0030C00F0158011F8013B96
:100FA000BCF1020F624498BF11F801CB00F8013B7D
:100FB00038BF11F8013BA2F1040298BF00F801CB41
:100FC00038BF00F8013B11F0030300F02580083A18
:100FD000C0F0088051F8043B083A51F804CBA0E86F
:100FE0000810F5E7121D5CBF51F8043B40F8043BC4
:100FF000AFF30080D20724BF11F8013B11F801CBF9
:1010000048BF11F8012B24BF00F8013B00F801CBC9
:1010100048BF00F8012B704710B5203AC0F00B8094
:10102000B1E81850203AA0E81850B1E81850A0E8EC
:101030001850BFF4F5AF5FEA027C24BFB1E8185046
:10104000A0E8185044BF18C918C0BDE810405FEAB6
:10105000827C24BF51F8043B40F8043B08BF704732
:10106000D20728BF31F8023B48BF11F8012B28BF37
:1010700020F8023B48BF00F8012B704702F0FF0345
:1010800043EA032242EA024200F002B84FF00002B3
:101090000429C0F0128010F0030C00F01B80CCF18A
:1010A000040CBCF1020F18BF00F8012BA8BF20F8F8
:1010B000022BA1EB0C0100F00DB85FEAC17C24BF4C
:1010C00000F8012B00F8012B48BF00F8012B7047F6
:1010D0004FF0000200B5134694469646203922BFD1
:1010E000A0E80C50A0E80C50B1F12001BFF4F7AF1C
:1010F000090728BFA0E80C5048BF0CC05DF804EBFE
:10110000890028BF40F8042B08BF704748BF20F86B
:10111000022B11F0804F18BF00F8012B7047704769
:10112000704770470048704778BA00207047704792
:101130007047704738B504460A4600206946AFF349
:101140000080002808BF38BD02460099204600F004
:101150004FF8012038BD012000F07CB8F8B5AFF39E
:101160000080054600200C46102000BF0646A81946
:10117000A0420DD9324669460020AFF30080070037
:1011800008BF00F067F80098A04218BF0546C419D0
:10119000FFF7C8FF05600746F01D20F0070046195D
:1011A000284600F00AF8B44208BFF8BDA21B314639
:1011B0003868BDE8F84000F01BB800210160C0E9C4
:1011C000011070471020704710B500F00DF800684E
:1011D00010BD10B5044600F007F8046010BD000013
:1011E0000048704770BA00200048704770BA00206D
:1011F000034640688C46002818BF88423CBF03461F
:101200004068F8D318681844884207D00CF10300EE
:1012100020F00700001D411A521A0146081D0A60FD
:10122000FFF717BE1FB584B000200A9C06AB04AAC6
:1012300002A90094AFF3008018B1DDE9020108B003
:1012400010BD0348204000F040F800200146F6E7BA
:101250000000207C10B500F03FF8BDE8104000F021
:101260002FB870477546FFF7BBFFAE4605006946CD
:10127000534620F00700854618B020B5FFF766F802
:10128000BDE820404FF000064FF000074FF0000887
:101290004FF0000B21F00701AC46ACE8C009ACE808
:1012A000C009ACE8C009ACE8C0098D46704710B56C
:1012B0000446AFF300802046BDE81040FEF7D1BFE2
:1012C000002801D000F030B8704710B500F04CF89D
:1012D000BDE81040FFF7F4BF10B5012805D000218C
:1012E00003A000F027F8012010BD09A1F8E70000D5
:1012F00053494752544D454D3A204F7574206F66FF
:101300002068656170206D656D6F72790000000066
:101310003A2048656170206D656D6F727920636F4A
:10132000727275707465640001491820ABBEFEE7E7
:101330002600020070B505460C460A2000E06D1C30
:1013400000F068F835B128780028F8D102E0641C74
:1013500000F060F814B120780028F8D1BDE87040A2
:101360000A2000F057B8000010B5022803D0410150
:1013700003D50DA112E0002010BD010101D50FA180
:101380000CE0C10001D511A108E0810001D512A136
:1013900004E0400001D513A100E0002115A0FFF7F3
:1013A000C9FF012010BD0000496E76616C696420A0
:1013B0004F7065726174696F6E00000044697669F0
:1013C0006465204279205A65726F00004F7665721D
:1013D000666C6F7700000000556E646572666C6F16
:1013E00077000000496E65786163742052657375FB
:1013F0006C7400005349474650453A204172697465
:10140000686D6574696320657863657074696F6E73
:101410003A20000008B569468DF800000320ABBEF5
:1014200008BD00004A494A6822F440324A604A68CE
:1014300043681A434A6001684A6822F480724A602D
:1014400001684A68036942EA03224A6001684A68FF
:1014500022F040724A6001684A6883681A434A6011
:1014600001688A6822F400628A6001688A68C36839
:101470001A438A60816A6FF07062D14214D00168A9
:101480008A6822F070628A6001688A68836A1A43F7
:101490008A6001688A6822F040528A6001688A681E
:1014A000C36A1A438A6009E001688A6822F07062A0
:1014B0008A6001688A6822F040528A6001688A68FE
:1014C00022F002028A6001688A68037E42EA4302CF
:1014D0008A6090F8201089B101684A6842F400627D
:1014E0004A6001684A6822F460424A6001684A68BA
:1014F000436A5B1E42EA43324A6004E001684A687C
:1015000022F400624A600168CA6A22F47002CA6268
:101510000168CA6A838B5B1E42EA0352CA62016891
:101520008A6822F400728A6001688A6890F8303014
:1015300042EA43228A6001688A6822F480628A60F3
:1015400001688A68406942EA80208860704700002C
:101550000023014010B501221021024802F05DFB7A
:1015600010BD00000000024010B50022102102480A
:1015700002F053FB10BD00000000024010B5012234
:101580001146024802F049FB10BD00000004024071
:1015900010B500220121024802F03FFB10BD0000FF
:1015A0000004024010B50446FFF7DEFF922000F071
:1015B000A5F906229549122000F080F9FFF7CAFF2D
:1015C00092484078000200B2904909780843904957
:1015D00008800846B0F9000000EE100AB8EEC00A14
:1015E0008C48D0ED000A20EE200AD4ED080A20EE47
:1015F000200A84ED000A8548C078000200B28349C1
:1016000089780843824908800846B0F9000000EE56
:10161000100AB8EEC00A7F48D0ED000A20EE200A7A
:10162000D4ED080A20EE200A84ED010A77484079BB
:10163000000200B2754909790843754908800846D7
:10164000B0F9000000EE100AB8EEC00A7148D0ED03
:10165000000A20EE200AD4ED080A20EE200A84EDCC
:10166000020AFFF795FF08226849002000F026F9DA
:10167000FFF784FF654800780F284FD1664800784F
:10168000F0B36248C078000200B26049897808432C
:101690005F49088094ED090A0846B0F9000000EEA1
:1016A000900AF8EEE00A5D4890ED001A10EE810A0B
:1016B00084ED030A55484079000200B25349097984
:1016C00008435349088094ED0A0A0846B0F900001F
:1016D00000EE900AF8EEE00A504890ED001A10EE85
:1016E000810A84ED040A4948C079000200B24749E2
:1016F000897908434649088094ED0B0A084600E0C2
:101700000DE0B0F9000000EE900AF8EEE00A434860
:1017100090ED001A10EE810A84ED050A44E03B4882
:10172000C078000200B239498978084338490880F6
:101730000846B0F9000000EE100AB8EEC00A3748BB
:10174000D0ED000A20EE200A84ED030A2F484079EC
:10175000000200B22D49097908432D490880084646
:10176000B0F9000000EE100AB8EEC00A2B48D0ED28
:10177000000A20EE200A84ED040A2448C079000201
:1017800000B2224989790843214908800846B0F906
:10179000000000EE100AB8EEC00A2048D0ED000AA2
:1017A00020EE200A84ED050AFFF7DEFEA22000F0FD
:1017B000A5F802221549222000F080F8FFF7CAFEA2
:1017C00012480078C0001149497840EA6110104978
:1017D00008800846B0F90000B0F5806F05DB0846C8
:1017E0000088A0F5006000B208800948B0F9000048
:1017F00000EE100AF8EEC00AB4EE001AB3EE070AC3
:1018000000EE810A84ED070A10BD00005603002097
:101810005E03002018030020280300201C03002082
:1018200070B504460D461C48046000201B49087032
:101830000DF060FE194909780843184908700DF049
:101840000FFF164909780843144908701DB1144860
:1018500000F062FA1CE09FED130A114880ED090ABE
:101860009FED110A80ED0A0A9FED100A80ED0B0A28
:101870009FED0F0A80ED0C0A90ED0C0ADFED0D0ACA
:1018800080EE801A80ED081A9FED0B0A80ED060AA3
:101890000248007870BD0000600300202203002091
:1018A000B04C0020D18460B9F9B7A3BB60815D3B27
:1018B000C4641A41C3F51C410000204270B50646BD
:1018C0000C46154646F0800000F018F806E055205A
:1018D00000F014F82070641C681EC5B2002DF6D10B
:1018E00070BD70B504460D4644F0800000F006F867
:1018F000552000F003F8287070BD000001B582B0DB
:101900004FF47A70012301AA02A9009003480068ED
:1019100003F0F6FE9DF804000EBD000060030020F9
:1019200070B505460C462846FFF7E8FF2046FFF74E
:10193000E5FF70BDD2ED020A92ED021AB6EE000A82
:1019400000EEC10AD2ED030A92ED031A00EEC10ABD
:10195000D0ED000A20EE200AD2ED010A92ED021A23
:1019600060EE810A92ED001AD2ED031A41EE610A8F
:1019700090ED011A00EE810AD2ED010A92ED031AF0
:1019800060EE810A92ED001AD2ED021A41EE210AB0
:1019900090ED021A00EE810AF0EE000A20EE200A15
:1019A00081ED000A92ED010AD2ED020A20EE200A32
:1019B000D2ED000A92ED031A00EE810AD0ED000A82
:1019C00060EE200A92ED011AD2ED011AB6EE000A7D
:1019D00001EE610AD2ED031A92ED032AB0EE401A2D
:1019E00001EEC21AD0ED011AB0EE600A01EE210A32
:1019F000D2ED020A92ED031A60EE810A92ED001A0E
:101A0000D2ED011A41EE610A90ED021A00EE810A50
:101A1000F0EE000A20EE200A81ED010A92ED010AA3
:101A2000D2ED030A20EE200AD2ED000A92ED021A4E
:101A300000EEC10AD0ED000A20EE200AD2ED020A23
:101A400092ED031A60EE810A92ED001AD2ED011AAE
:101A500041EE210A90ED011A00EE810A92ED011A81
:101A6000D2ED011AF6EE000A41EE610A92ED021A79
:101A7000D2ED021A41EE610A90ED021A00EE810ADF
:101A8000F0EE000A20EE200A81ED020A704700BF46
:101A9000FEE7000010B5024801F0B3F910BD0000E8
:101AA000900F002010B5024801F0ABF910BD000006
:101AB000B80F0020F8B507460C4615461E4640F202
:101AC000FF100D49086000208860C8600820086188
:101AD000380A0A4908704F70200A8870CC70280AAA
:101AE00008714D71300A8871CE716B460A46024901
:101AF000034800F0B9FFF8BD6C3300200801002056
:101B0000900F0020F8B507460C4615461E464FF4C8
:101B100000700D49086000208860C86008200861D6
:101B2000380A0A4908704F70200A8870CC70280A59
:101B300008714D71300A8871CE716B460A460249B0
:101B4000034800F091FFF8BD9C33002018010020ED
:101B5000B80F002038B504464FF4A4600F49086060
:101B600000208860C8600820086120780C4908704F
:101B700060784870A0788870E078C8702079087123
:101B800060794871A0798871E079C8716B460A461E
:101B90000249044800F068FF38BD0000FC33002013
:101BA00044010020900F002038B5044640F2215037
:101BB0000F49086000208860C8600820086120780C
:101BC0000C49087060784870A0788870E078C87018
:101BD0002079087160794871A0798871E079C871BD
:101BE0006B460A460249044800F03EFF38BD00003B
:101BF000143400204C010020900F002038B504461A
:101C000040F222500F49086000208860C860082018
:101C1000086120780C49087060784870A078887056
:101C2000E078C8702079087160794871A07988716E
:101C3000E079C8716B460A460249044800F014FF77
:101C400038BD00002C34002054010020900F0020EB
:101C50000346042B15D007DC7BB1012B0ED0022BE1
:101C60000DD0032B12D10BE0202B0BD0212B0AD04F
:101C7000222B09D0232B09D107E008E007E006E07A
:101C800005E004E003E002E001E000E000BF00BF87
:101C9000002070470020704710B500220449054815
:101CA00009F07BF80449034809F071F8002010BDE1
:101CB000A0270020FC160020A01F002070B50446BD
:101CC0000D462046296813F019FB2146034809F008
:101CD0005EF8024809F03AF8002070BDFC160020BA
:101CE0002DE9F04104460D4600260A48D0F89072CE
:101CF000D7F8140210B10120BDE8F0812A46214630
:101D0000044809F04AF8034809F0C2F8064630468C
:101D1000F2E70000FC16002070B52DED048B88B0B2
:101D2000044600200690079000F0ACFBFE4880EDD2
:101D3000000A00BF00F0A6FBFB48D0ED000A30EE21
:101D4000600AF2EE040AB4EEE00AF1EE10FA14DDD5
:101D50009FEDF60A84ED090A9FEDF50A84ED0A0A63
:101D60009FEDF40A84ED0B0A9FEDF30A84ED0C0A53
:101D70009FEDF20A84ED060A57E29FEDF10A00F0AA
:101D80003DFB9FEDF00A84ED0C0A9FEDEE0A84ED19
:101D9000090A9FEDEC0A84ED0A0A9FEDEA0A84ED38
:101DA0000B0A002673E1FFF7DFFB9220FFF7A6FD89
:101DB000062206A91220FFF781FDFFF7CBFB9DF855
:101DC0001900000200B29DF8181040EA010500EE6B
:101DD000105AB8EEC00ADC48D0ED000A20EE200A06
:101DE00084ED000A9DF81B00000200B29DF81A1055
:101DF00040EA010500EE105AB8EEC00AD248D0ED14
:101E0000000A20EE200A84ED010A9DF81D00000260
:101E100000B29DF81C1040EA010500EE105AB8EE21
:101E2000C00AC948D0ED000A20EE200A84ED020A5B
:101E3000D4ED000A60EEA00A94ED011AD4ED011A67
:101E400041EE210A94ED021AD4ED021A41EE210A64
:101E5000B0EE600A0CF005FCB0EE408A94ED0C0A7E
:101E600030EE080A84ED0C0AFFF792FB082206A95F
:101E70000020FFF723FDFFF781FB9DF818000F28D6
:101E800050D19DF81B00000200B29DF81A1040EAE4
:101E9000010500EE105AB8EEC00AAC48D0ED000AB9
:101EA00020EE200A84ED030A94ED090AD4ED030A1A
:101EB00030EE200A84ED090A9DF81D00000200B2F0
:101EC0009DF81C1040EA010500EE105AB8EEC00A59
:101ED0009E48D0ED000A20EE200A84ED040A94ED1D
:101EE0000A0AD4ED040A30EE200A84ED0A0A9DF8AD
:101EF0001F00000200B29DF81E1040EA010500EE2E
:101F0000105AB8EEC00A9148D0ED000A20EE200A1F
:101F100084ED050A94ED0B0AD4ED050A30EE200A93
:101F200084ED0B0A06BBF0EE488AB0EE489A00201A
:101F300017E004F10C0101EB800191ED000A03A907
:101F400001EB800181ED000A04F10C0101EB80013D
:101F500091ED000A694601EB800181ED000A411C08
:101F6000C8B20328E5DB49E0B4EEE88AF1EE10FAE6
:101F700001DDF0EE488AB4EEC98AF1EE10FA01D222
:101F8000B0EE489A002037E004F10C0101EB80012B
:101F900091ED000A03A901EB8001D1ED000AB4EE36
:101FA000E00AF1EE10FA0ADD04F10C0101EB800108
:101FB00091ED000A03A901EB800181ED000A04F113
:101FC0000C0101EB800191ED000A694601EB8001F3
:101FD000D1ED000AB4EEE00AF1EE10FA0AD204F1F3
:101FE0000C0101EB800191ED000A694601EB8001D3
:101FF00081ED000A411CC8B20328C5DB38EEC90ACE
:10200000534880ED000A002012E003A901EB800193
:1020100091ED000A694601EB8001D1ED000A30EE36
:10202000600A4C4901EB800181ED000A411CC8B2F5
:102030000328EADB464890ED000AF6EE000AB4EE0B
:10204000E00AF1EE10FA1BDC424890ED000ADFEDE9
:10205000420AB4EEE00AF1EE10FA11DC90ED010A4A
:10206000DFED3D0AB4EEE00AF1EE10FA08DC90ED87
:10207000020ADFED390AB4EEE00AF1EE10FA00DDF3
:102080000AE09FED360A00F0B9F9701C86B23448B8
:1020900000888642FFF687AE00BFD4ED0C0A3048B8
:1020A000008800EE100AB8EE400A80EE801A84ED37
:1020B0000C1A002015E004F1240101EB8001D1EDA0
:1020C000000A2749098800EE101AB8EE400A80EE8F
:1020D000801A04F1240101EB800181ED001A411CFA
:1020E000C8B20328E7DBFFF73FFAA220FFF706FCA0
:1020F000022206A92220FFF7E1FBFFF72BFA9DF849
:102100001800C0009DF8191040EA6115B5F5806F00
:1021100002DBA5F5006005B200EE105AF8EEC00A29
:10212000B4EE001A1EE0000050030020D18460B914
:10213000F9B7A3BB60815D3BC4641A410000204233
:102140000AD7A33B00000000180300201C03002056
:1021500024030020A44C00209A99193E6F12033AE0
:1021600054030020B3EE070A00EE810A84ED060A4C
:1021700034480088401C00B232490880324890ED53
:10218000000AF6EE000AB4EEE00AF1EE10FA3FF7AC
:10219000D1AD94ED0C0ADFED2D0A30EE600AB0EE01
:1021A000C00AF6EE000AB4EEE00AF1EE10FAEEDC38
:1021B000274890ED000A5FED180AB4EEE00AF1EE50
:1021C00010FAE4DC90ED010A5FED1D0AB4EEE00ABE
:1021D000F1EE10FADBDC90ED020A5FED210AB4EEBD
:1021E000E00AF1EE10FAD2DC94ED090AB0EEC00A72
:1021F000DFED180AB4EEE00AF1EE10FAC7DC94ED58
:102200000A0AB0EEC00ADFED130AB4EEE00AF1EEFE
:1022100010FABCDC94ED0B0AB0EEC00ADFED0D0A3B
:10222000B4EEE00AF1EE10FAB1DC00BF94ED0C0A56
:10223000DFED090A80EE801A84ED081A08B0BDECC3
:10224000048B70BD2A03002024030020CDCC1C4148
:10225000A44C00200AD7233CC3F51C411B4840680E
:1022600000F0006080B31A48406B0068194988424A
:1022700005D94FF0006017494C3908601CE014483C
:10228000406B00681149B831884205D94FF00060B1
:102290001049503908600FE00D48406B00680B4949
:1022A0005831884204D94FF000600849C86003E003
:1022B0004FF000600549886005480068006840F4F8
:1022C0000070034909680860704700000060024020
:1022D000341000205864024010B5024801F0FAF9A9
:1022E00010BD00003C16002010B5024801F0F2F9C4
:1022F00010BD00007C15002010B5024801F0EAF97D
:1023000010BD00009C16002010B5024801F0E2F953
:1023100010BD00001C15002001680A4BCAB2103A1B
:10232000A3FB02321209084B9B5CC365032A04D944
:102330006FF30901091D816502E06FF309018165F1
:10234000806D7047ABAAAAAA64BD010801460020AF
:102350008A6A8B69002B0FD0B3F5005F1DD08AB35A
:10236000012A30D0022A2ED0032A04D1C96A11F0E2
:10237000807F00D0012070471AB1012A07D0022ABD
:10238000F9D1C96A11F0807FF5D001207047C96A80
:10239000B1F1C07FFAD1012070475AB1012A0BD0A8
:1023A000022A07D0032AF7D1C96AB1F1C07FF3D15D
:1023B0000120704701207047C96A11F0807FFAD070
:1023C00001207047FFE701207047000008B508486A
:1023D00040680090074900980968884204D206487E
:1023E0000068401C0449086002490098086008BD64
:1023F000001000E0D0000020CC0000200C4948680C
:10240000F0EE400A00BF0A494968091A01EE101AA5
:10241000F8EE411A074991ED001AB8EE411A20EE84
:10242000811AF4EEC11AF1EE10FAECD370470000F5
:10243000001000E0C000002010B52DED028B82B02E
:1024400004460E484068019020680199081A00EE81
:10245000100AF8EE400A0A4890ED000AB8EE400A69
:1024600080EE801AB0EE418A01982060FFF7AEFF3F
:10247000B0EE480A02B0BDEC028B10BD001000E0C7
:10248000C000002010B52DED028B00F059F80F4868
:1024900090ED000AB8EE400A808800EE900AF8EE4F
:1024A000600A9FED0B1A00EE810A0848C08800EE12
:1024B000900AF8EE600A9FED071A00EE810AB0EE6E
:1024C000408AB0EE480ABDEC028B10BDB800002077
:1024D0006F12833ABD3786351249096841F0807121
:1024E000104A11600021104A51601146096841F0FC
:1024F000010111600D4941430D4A116011460968FF
:102500004FF47A72B1FBF2F10A4A11600849096886
:10251000064AB1FBF2F1084A11600021074A116036
:1025200070470000FCED00E0001000E040420F00AA
:10253000C0000020C4000020C8000020CC00002003
:1025400038B5294840680090FFF740FF27480068E9
:102550004FF0FF31A0FB01310098181841F1000144
:10256000234A03C2234800232149026803C9FEF716
:1025700097FC214A03C220480CC81E48006800246A
:10258000A2FB001503FB005002FB04021848D0E92F
:102590000030591A60EB0200184AC2E900101648D0
:1025A000006817490860174800231449026803C9E6
:1025B000FEF776FC12498880084680881149096830
:1025C00041430E48D0E90030591A60F100000E4A2C
:1025D000C2E900100D4800230B49026803C9FEF749
:1025E0005FFC0749C88038BD001000E0CC00002027
:1025F000D8000020C0000020E0000020E8000020FB
:10260000B8000020C4000020F0000020C800002016
:10261000704710B5012001F0DFF910BD10B508209A
:1026200001F0DAF910BD10B5102001F0D5F910BD98
:1026300010B5202001F0D0F910BDD2ED020A92EDC4
:10264000021AB6EE000A00EEC10AD2ED030A92EDBC
:10265000031A00EEC10AD0ED000A20EE200AD2EDE6
:10266000010A92ED021A60EE810A92ED001AD2ED93
:10267000031A41EE210A90ED011A00EE810AD2ED13
:10268000010A92ED031A60EE810A92ED001AD2ED72
:10269000021A41EE610A90ED021A00EE810AF0EE94
:1026A000000A20EE200A81ED000A92ED010AD2ED27
:1026B000020A20EE200AD2ED000A92ED031A00EE83
:1026C000C10AD0ED000A60EE200A92ED011AD2EDA7
:1026D000011AB6EE000A01EE610AD2ED031A92ED7C
:1026E000032AB0EE401A01EEC21AD0ED011AB0EE84
:1026F000600A01EE210AD2ED020A92ED031A60EEA1
:10270000810A92ED001AD2ED011A41EE210A90EDF4
:10271000021A00EE810AF0EE000A20EE200A81ED96
:10272000010A92ED010AD2ED030A20EE200AD2ED51
:10273000000A92ED021A00EE810AD0ED000A20EEA6
:10274000200AD2ED020A92ED031A60EE810A92EDA0
:10275000001AD2ED011A41EE610A90ED011A00EE65
:10276000810A92ED011AD2ED011AF6EE000A41EE4D
:10277000610A92ED021AD2ED021A41EE610A90ED61
:10278000021A00EE810AF0EE000A20EE200A81ED26
:10279000020A70477047000070B50A480468001DBF
:1027A0000568001D0668344454B1082206492046D5
:1027B00005F052FB042204491031284605F04CFB79
:1027C00070BD0000107AFF1F7A00002038B44FF06F
:1027D000000CCDF800C090F83C20012A1BD001224B
:1027E00080F83C200A680724092A17D90368DD68A5
:1027F0000A3A02EB420204FA02F225EA0202DA6025
:102800000A788B680A3A02EB420293400268D46865
:102810002343D36014E038BC0220704703681D696D
:1028200002EB420204FA02F225EA02021A610A7875
:102830008B6802EB420293400268146923431361E0
:102840004A681F24072A15D203685D6B521E02EBEB
:10285000820204FA02F225EA02025A630A8893B25B
:102860000A79521E02EB820293400268546B2343A2
:1028700053632CE00D2A15D203681D6BD21F02EBA7
:10288000820204FA02F225EA02021A630A8893B26B
:102890000A79D21F02EB820293400268146B234331
:1028A000136314E00368DD6A0D3A02EB820204FA56
:1028B00002F225EA0202DA620A8893B20A790D3A34
:1028C00002EB820293400268D46A2343D362184A1F
:1028D000184B04689C4206D10C68122C03D1546832
:1028E00044F48004546004689C421CD10B68102B93
:1028F00001D0112B17D1536843F4000353600968CA
:10290000102910D10C490D4A0968B1FBF2F101EB15
:10291000810149000091009929B10099491E009157
:1029200000990029F9D180F83CC038BC00207047DC
:102930000023014000200140A400002040420F007D
:1029400070B504460025002C03D0206C002610B181
:1029500007E0012070BD204600F01EF8666484F890
:102960003C60206C10F0100F04D0012584F83C600E
:10297000284670BD206C20F4885040F0020020648E
:102980002046FEF74FFD6664206C20F0020040F008
:1029900001002064EAE7000010B586B00446142167
:1029A00001A8FEF795FB2349206888420FD100BF9C
:1029B000002000902048006840F480701E490860A4
:1029C0000846006800F48070009000BF2FE01B49AB
:1029D000206888422BD100BF002000901648006874
:1029E00040F48060144908600846006800F4806084
:1029F000009000BF00BF00BF002000900E481438B8
:102A0000006840F020000C4914390860084600684E
:102A100000F02000009000BF00BF081501900320C7
:102A200002900020039001A9054800F0E1FF06B0E4
:102A300010BD000000200140443802400022014047
:102A40000014024090F82020012A07D0022A05D065
:102A5000416A41F480214162012070470068426967
:102A6000114341610020704770B490F82040D0F8C5
:102A700000C0DCF808C0012C08D0022C06D0416A46
:102A800041F48021416270BC012070470CF08064E9
:102A90000CF000652C4302D11CF0805F5FD0CCF3BA
:102AA000016CBCF1020F06D9416A41F40001416298
:102AB00070BC01207047012404FA0CF41C608B6880
:102AC0004FF4C0749BB1CD6804EB0C162B434D68DA
:102AD00043EAC5030568AB514FF4C273066803EBC4
:102AE0000C130D69F550097D012909D00DE00D8801
:102AF000CB6804EB0C1643EA45530568AB51EBE792
:102B00000168CD5845F48075CD501179D379557948
:102B100041EA036193791B0443EA052319434FF407
:102B2000C675036805EB0C1559511178D37841EA45
:102B30000361937852781B0443EA022211434FF455
:102B4000C473026803EB0C13D150016804EB0C1042
:102B50000A5842F001020A5070BC00207047416AD6
:102B600041F40011416270BC0120704790F82020B0
:102B7000012A07D0022A05D0416A41F4802141622E
:102B8000012070474248D0F8002242F00102C0F80C
:102B90000022D0F8002222F47C52C0F80022D0F8A3
:102BA00000224B6A42EA0322C0F800220A7D012378
:102BB00002F01F0203FA02F2D0F81C329343C0F86D
:102BC0001C32CB69D3B9D0F80C329343C0F80C3225
:102BD000B1F80CC04B686CF31F43D1F814C000EB84
:102BE000CC0CCCF84032B1F808C00B686CF31F4332
:102BF000D1F814C000EBCC0CCCF84432CB69012BDB
:102C00001AD1D0F80C321343C0F80C32B1F800C01E
:102C10004B686CF31F43D1F814C000EBCC0CCCF81C
:102C20004032B1F808C0CB686CF31F43D1F814C030
:102C300000EBCC0CCCF844328B697BB1D0F8043279
:102C40001343C0F804320B6973B1D0F81432134344
:102C5000C0F81432096A01290CD010E0D0F804320F
:102C60009343C0F80432EEE7D0F814329343C0F82F
:102C70001432EFE7D0F81C121143C0F81C12D0F840
:102C8000001221F00101C0F800120020704700007E
:102C900000640040704710B490F820C0BCF1010FF0
:102CA00009D0BCF1020F06D0416A41F48021416293
:102CB00010BC0120704739B1D0F800C0DCF810C05A
:102CC0001CF0030F7DD006E0D0F800C0DCF80CC08B
:102CD0001CF0030F7BD04FF4D87C04680CEB011C74
:102CE00054F80C4004F004049460002C7DD0046877
:102CF00054F80C40E4085460046854F80CC0CCF359
:102D0000400CC2F80CC04FF4DA7C04680CEB011CD8
:102D100054F80C4004F00F041461046854F80C409B
:102D2000C4F307249461046854F80CC04FEA1C4CA7
:102D3000C2F814C04FF4DC72D0F800C002EB0112EC
:102D40005CF802C083F800C0D0F800C05CF802C094
:102D50004FEA1C2C83F801C0D0F800C05CF802C018
:102D60004FEA1C4C83F802C0D0F800C05CF8022087
:102D7000120EDA704FF4DE72D0F800C002EB0112CE
:102D80005CF802C083F804C0D0F800C05CF802C050
:102D90004FEA1C2C83F805C0D0F800C05CF802C0D4
:102DA0004FEA1C4C83F806C0D0F800C05CF8022043
:102DB000120EDA71F9B10068016941F02001016178
:102DC00002E00BE003E010E010BC00207047416A15
:102DD00041F40011416210BC01207047416A41F486
:102DE0000011416210BC01207047046854F80C4087
:102DF000640D146080E70068C16841F02001C16083
:102E0000DEE72DE9F05F0546002428684669D0F822
:102E100004908768D0F80CA0D0F810B0D0F81880D3
:102E200016F0010F54D017F0010F17D00121816067
:102E300017F0020F03D0284600F006FC0EE017F052
:102E4000040F02D04FF4006408E017F0080F02D01E
:102E50004FF4805402E0284600F0F5FB17F4807F21
:102E600019D029684FF48070886017F4007F03D070
:102E7000284600F0EBFB0EE017F4806F02D044F41C
:102E8000005408E017F4006F02D044F4804402E0DC
:102E9000284600F0DAFB17F4803F19D029684FF478
:102EA0008030886017F4003F03D0284600F0D0FB44
:102EB0000EE017F4802F02D044F4004408E017F429
:102EC000002F02D044F4803402E0284600F0BFFB1B
:102ED00016F0080F07D01AF0100F04D044F4007455
:102EE00029681020C86016F0040F4FF0080707D0BB
:102EF0001AF0080F04D02868C760284600F000FACE
:102F000016F0020F07D02868C06810F0030F02D037
:102F1000284600F0F7F916F0400F07D01BF0100F0D
:102F200004D044F4806429681020086116F0200F52
:102F300007D01BF0080F04D028680761284600F06E
:102F40004DFB16F0100F07D02868006910F0030F32
:102F500002D0284600F043FB16F4003F08D019F0D9
:102F6000100F05D0296810204860284600F038FB73
:102F700016F4803F07D019F0080F04D02868476086
:102F8000284600F066FB16F4004F4AD019F0040FF3
:102F900044D016F4807F04D018F0010F01D044F023
:102FA000010416F4007F04D018F0020F01D044F0A1
:102FB000020416F4806F04D018F0040F01D044F01E
:102FC000040416F4006F29D018F0700F26D008F012
:102FD0007000402815D006DC102809D020280AD01F
:102FE000302816D10AE050280ED0602811D10EE00A
:102FF00044F008040DE044F010040AE044F020041A
:1030000007E044F0400404E044F0800401E044F4AC
:1030100080742868816921F0700181612968042029
:103020004860002C05D0686A204368622846FFF794
:1030300031FEBDE8F09F70B50446002C03D094F833
:10304000200010B104E0012070BD204600F0A8F877
:103050002068016821F00201016000F0E5FD0546ED
:10306000206840684FF0050610F0020F11D000F004
:10307000DBFD401B0A2807D9606A40F4003060621B
:1030800084F82060012070BD2068406810F0020FB5
:10309000EDD12068016841F00101016000F0C4FD3C
:1030A00005462068406810F0010F11D100F0BCFD0A
:1030B000401B0A2807D9606A40F40030606284F837
:1030C0002060012070BD2068406810F0010FEDD035
:1030D000207E01283FD02068016821F08001016036
:1030E000607E01283DD02068016821F04001016028
:1030F000A07E01283BD02068016821F020010160FA
:10310000E07E012839D02068016841F0100101609B
:10311000207F012837D02068016821F00801016074
:10312000607F012835D02068016821F0040101602A
:10313000E168A06862690843216911430843616836
:10314000491E08432168C86100206062012084F89C
:103150002000002070BD2068016841F080010160FE
:10316000BEE72068016841F040010160C0E72068C7
:10317000016841F020010160C2E72068016821F088
:1031800010010160C4E72068016841F00801016096
:10319000C6E72068016841F004010160C8E700004B
:1031A00010B586B00446142101A8FDF791FF4E49E1
:1031B0002068884241D14D480068401C4B49086056
:1031C0000846006801280FD100BF00200090484841
:1031D000006840F00070464908600846006800F04A
:1031E0000070009000BF00BF00BF0020009040486A
:1031F0001038006840F008003D4910390860084662
:10320000006800F00800009000BF00BF032001909C
:1032100002200290002003900320049009200590D2
:1032200001A9344800F0E4FB00220621142000F03C
:103230004DFF142000F03CFF54E02F4920688842E5
:1032400050D100BF002000902948006840F0806005
:10325000274908600846006800F08060009000BFC1
:1032600000BF22480068401C2049086008460068EA
:1032700001280FD100BF002000901D48006840F0D9
:1032800000701B4908600846006800F0007000905C
:1032900000BF00BF00BF0020009015481038006834
:1032A00040F002001249103908600846006800F03A
:1032B0000200009000BF00BF602001900220029039
:1032C00000200390032004900920059001A90B48D9
:1032D00000F08EFB00220621402000F0F7FE402087
:1032E00000F0E6FE06B010BD00640040380000208B
:1032F00040380240000C02400068004000040240D8
:103300007047000010B58AB0044601AB03AA002143
:103310002046FFF7C0FCAD4884427DD10398A0F25F
:10332000052000285BD0012832D0022804D0A0F26A
:103330001B40002871D17CE0A548B0F86E0001B2B6
:10334000A348A0F876109DF805009DF8041040EA07
:1033500001209F49A1F86E009DF807009DF8061016
:1033600040EA012001B29A48A0F870109DF80900C7
:103370009DF8081040EA012001B29548A0F87210AB
:103380009DF80A1080F8741007200EF00FFC57E02B
:103390008F48408E01B28E4841879DF805009DF808
:1033A000041040EA01208A4948869DF807009DF8EC
:1033B000061040EA012001B2854881869DF8090087
:1033C0009DF8081040EA012001B28148C1869DF8AD
:1033D0000A1080F8381006200EF0E8FB30E07C4838
:1033E000008D01B27A4801869DF805009DF8041011
:1033F00040EA0120764908859DF807009DF80610EF
:1034000040EA012001B2724841859DF809009DF80B
:10341000081040EA012001E013E010E001B26C481E
:1034200081859DF80A1080F82E1005200EF0BEFB55
:1034300006E00622674901A814F014FD00E000BF71
:10344000C1E065488442FBD10398A0F2012030B16D
:10345000012830D002285AD003287DD185E05C486D
:10346000B0F8460001B25A48A0F84E109DF8050089
:103470009DF8041040EA01205549A1F846009DF846
:1034800007009DF8061040EA012001B25048A0F85C
:1034900048109DF809009DF8081040EA012001B28B
:1034A0004B48A0F84A109DF80A1080F84C100920EB
:1034B0000EF07CFB86E04648B0F8500001B244486C
:1034C000A0F858109DF805009DF8041040EA01206E
:1034D0003F49A1F850009DF807009DF8061040EA0A
:1034E000012001B23A48A0F852109DF809009DF859
:1034F000081040EA012001B23548A0F854109DF8A8
:103500000A1080F856100A200EF050FB5AE030489E
:10351000B0F85A0001B22E48A0F862109DF80500DC
:103520009DF8041040EA01202949A1F85A009DF8AD
:1035300007009DF8061040EA012001B22448A0F8D7
:103540005C109DF809009DF8081040EA012001B2C6
:103550001F48A0F85E1000E033E09DF80A1080F8E4
:1035600060100B200EF022FB2CE01948B0F864002C
:1035700001B21748A0F86C109DF805009DF80410E2
:1035800040EA01201249A1F864009DF807009DF867
:10359000061040EA012001B20D48A0F866109DF81F
:1035A00009009DF8081040EA012001B20848A0F87F
:1035B00068109DF80A1080F86A100C200EF0F6FAD8
:1035C00000E000BF00BF0AB010BD0000900F002057
:1035D000F432002060370020B80F00207047704799
:1035E000704770B5044694F82000012805D0606A41
:1035F00040F400206062012070BD022084F82000A9
:103600002068016821F00101016000F00DFB054612
:103610002068406810F0010F12D000F005FB401B3D
:103620000A2808D9606A40F400306062052084F8F6
:103630002000012070BD2068406810F0010FECD11F
:103640000020606270BD70477047704770477047D8
:103650007047704710B50446002C02D0607910B155
:1036600006E0012010BD00202071204600F006F881
:103670000220607101206071002010BD08B50A4A67
:10368000016891420FD100BF0021009107490968EC
:1036900041F48051054A11601146096801F48051D6
:1036A000009100BF00BF08BD00300240303802402A
:1036B00090F83510022903D0802141650120704720
:1036C000052180F835100068016821F001010160D2
:1036D000002070472DE9F84304464FF00008CDF86C
:1036E000008076484FF416510068B0FBF1F7A56DE5
:1036F0002E6894F85C00082101FA00F0304211D0E5
:103700002068026812F0040F0CD0026822F0040254
:10371000026094F85C0001FA00F0A860606D40F06F
:103720000100606594F85C004FF0010909FA00F0AF
:10373000304209D02168496911F0800F04D0A86097
:10374000606D40F00200606594F85C1004208840D1
:10375000304209D02168096811F0020F04D0A86036
:10376000606D40F00400606594F85C1010208840A3
:10377000304224D02168096811F0080F1FD0A860DA
:103780002068016811F4802F0DD0006810F4002F1C
:1037900004D0A16C99B12046884710E0216C71B12A
:1037A000204688470BE0016811F4807F03D101684F
:1037B00021F008010160216C09B12046884794F886
:1037C0005C1020208840304251D02168096811F0F7
:1037D000100F4CD0A86094F8350005280DD0206853
:1037E000016811F4802F32D0006810F4002F29D026
:1037F000E16B59B32046884739E02068016821F021
:10380000160101602068416921F080014161206C4E
:1038100008B9A06C20B12068016821F0080101609E
:1038200094F85C003F2101FA00F0A86084F834802D
:1038300084F83590216D00293ED001B02046BDE8C6
:10384000F0430847616C09B1204688470FE00168E2
:1038500011F4807F07D1016821F01001016084F824
:10386000348084F83590E16B09B120468847606D5B
:10387000002821D0606D10F0010F15D0052084F8CC
:1038800035002068016821F0010101600098401CAA
:103890000090B84204D82068006810F0010FF5D1FC
:1038A00084F8348084F83590E16C002904D001B0AC
:1038B0002046BDE8F0430847BDE8F883A400002097
:1038C0002DE9F041044600F0AFF90546DCB10026D1
:1038D00084F83460022084F835002068016821F003
:1038E000010101602068006810F0010F13D000F0A2
:1038F0009BF9401B052809D920206065032084F826
:103900003500BDE8F0810120BDE8F0812068006845
:1039100010F0010FEBD121680868234A1040A3681A
:103920006268D4F810C01A43E36843EA0C031A43F0
:1039300063691A43A3691A43E3691A43236A1A4362
:103940001043626A042A03D1236BE26A1A431043CC
:1039500008602068406920F00701606A40EA0105BC
:10396000012704280ED1A06A0543E06A50B1204621
:10397000FEF7ECFC30B14020606584F83570012022
:10398000BDE8F081206845612046FEF7C5FC94F84B
:103990005C103F2202FA01F18160666584F835709F
:1039A0000020BDE8F08100003F8010F070B50446B3
:1039B00000F03AF90546B4F1FF3F02D00448007820
:1039C000044400F031F9401BA042FAD370BD00005E
:1039D000C40600207047000010B504490A6802427E
:1039E00002D00860FFF7F6FF10BD0000143C014054
:1039F0002DE9F84F0022DFF80082DFF80092DFF8AF
:103A000000A24FF0030E0F27012303FA02F50B6803
:103A10002B40AB427DD1D1F804C0BCF1020F02D0E3
:103A2000BCF1120F12D14FEAD20C00EB8C0CDCF877
:103A300020605407E40E07FA04FB26EA0B06D1F8CF
:103A400010B00BFA04F43443CCF8204006684FEA77
:103A5000420C0EFA0CF4A64391F804B00BF0030BE1
:103A60000BFA0CFB4BEA060606604E68012E05D0E9
:103A7000022E03D0112E01D0122E11D18668A6433A
:103A8000D1F80CB00BFA0CFB4BEA060686604668D0
:103A900026EA05050E79C6F30016964035434560C3
:103AA000C56825EA04048D6805FA0CFC4CEA040C90
:103AB000C0F80CC0D1F804C01CF0805F7DD0D8F8ED
:103AC00000C04CF4804CC8F800C0D8F800C00CF41A
:103AD000804CCDF800C022F0030C0CF1804404F5BA
:103AE0009834D4F808C895072D0F07FA05F62CEA84
:103AF0000606A0F1804CBCF5003C64D0A0F1804CDF
:103B0000BCF5013C62D0A0F1804CBCF5023C60D019
:103B100000E052E0A0F1804CBCF5033C5CD0A0F189
:103B2000804CBCF5043C5AD0A0F1804CBCF5053C5F
:103B300058D0A0F1804CBCF5063C56D0A0F1804C8A
:103B4000BCF5073C54D04FF0080C0CFA05FC4CEACD
:103B5000060CC4F808C8D9F800C02CEA030C4C685D
:103B600014F4803F01D04CEA030CC9F800C0254C86
:103B7000D4F800C02CEA030C4D6815F4003F01D0C6
:103B80004CEA030CC4F800C0DAF800C02CEA030CBD
:103B90004C6814F4801F01D04CEA030CCAF800C032
:103BA000194CD4F800C02CEA030C4D6815F4001F22
:103BB00001D04CEA030CC4F800C0521C102AFFF4D8
:103BC00023AFBDE8F88F4FF0000CBEE74FF0010CBB
:103BD000BBE74FF0020CB8E74FF0030CB5E74FF02E
:103BE000040CB2E74FF0050CAFE74FF0060CACE762
:103BF0004FF0070CA9E7000044380240003C0140A8
:103C0000083C0140043C01400C3C01400069084272
:103C100001D00120704700207047002A01D0816147
:103C2000704709048161704701488068704700004F
:103C3000C406002070B50446002C04D094F83D0062
:103C4000002510B106E0012070BD84F83C502046EC
:103C500000F0BCF8242084F83D002068016821F0C1
:103C60000101016001F0F4F8544B6168994203D8F6
:103C70005349884203D304E05249884201D20120CB
:103C800070BD5149B0FBF1F12268D2F804C02CF0AC
:103C90003F0C4CEA010CC2F804C062689A4201D899
:103CA0004A1C07E04FF4967251434FF47A72B1FB0D
:103CB000F2F14A1C2168D1F820C02CF03F0C42EAF6
:103CC0000C020A626168994210D84900401EB0FB9C
:103CD000F1F2521CC2F30B02042A01D2042026E0A6
:103CE000B0FBF1F0401CC0F30B0020E0A268002AFA
:103CF00050D001EBC10303EB0113A0F1010CBCFB9D
:103D0000F3F35B1C43F480431B051B0D4AD0002AD0
:103D10004AD001EBC10202EB0111401EB0FBF1F0F1
:103D2000401CC0F30B0040F4804040F40040216888
:103D3000CA6922F0FF0222F44F421043C861216A8F
:103D4000E06901432068026822F0C002114301606B
:103D5000E168206901432068826822F0FF0222F4B2
:103D6000034211438160A169606901432068C26810
:103D700022F0FF021143C1602068016841F0010197
:103D800001602564202084F83D00256384F83E50BE
:103D9000002070BD01EB4103A0F1010CBCFBF3F36B
:103DA0005B1CB1E70120C2E701EB4101401EB0FB03
:103DB000F1F0401CC0F30B00B7E70000A086010043
:103DC00080841E0000093D0040420F0010B586B0FF
:103DD0000446142101A8FDF77BF973492068884245
:103DE00030D100BF002000907048006840F0020011
:103DF0006E4908600846006800F00200009000BFAD
:103E000000BF4FF4407001901220029001200390F7
:103E1000032004900420059001A96548FFF7E8FD00
:103E200000BF0020009061481030006840F400108E
:103E30005E49103108600846006800F400100090E8
:103E400000BFAFE05B492068884259D100BF002025
:103E500000905648006840F0200054490860084629
:103E6000006800F02000009000BF00BF0320019018
:103E7000122002900120039003200490042005905A
:103E800001A94D48FFF7B4FD00BF0020009047484E
:103E90001030006840F48000444910310860084642
:103EA000006800F48000009000BF00BF4348444910
:103EB00008604FF060604860402141488160002107
:103EC000C1604FF480610161002141618161C16184
:103ED0004FF40031016200214162FFF7F1FC08B1AB
:103EE000FEF758FC00BF36486063846300BF354866
:103EF0000068406840F4006032490968486051E059
:103F00003149206888424DD100BF002000902748E9
:103F1000006840F00400254908600846006800F089
:103F20000400009000BF00BF00BF002000900846C2
:103F3000006840F0010008600846006800F00100D9
:103F4000009000BF00BF4815019012200290012090
:103F50000390032004900420059001A91B48FFF75B
:103F600047FD4FF4807001901220029001200390D1
:103F7000032004900420059001A91548FFF738FD9F
:103F800000BF0020009009481030006840F4000095
:103F90000649103108600846006800F400000090EF
:103FA00000BF00BF06B010BD0054004030380240D2
:103FB000000402400058004000140240B860024073
:103FC000DC10002034100020005C0040000802409B
:103FD0000000024002488168027811448160704705
:103FE000C406002010B50B48016841F4007101605F
:103FF000016841F480610160016841F480710160F1
:10400000032000F097F80F2000F006F800F026F8E3
:10401000002010BD003C024070B504460D4D4FF429
:104020007A712878B1FBF0F00B490968B1FBF0F028
:1040300001F062FC08B1012070BD102C07D20022F3
:104040002146501E00F042F86C60002070BD012037
:1040500070BD0000C4060020A400002008B500BF09
:10406000002000901148006840F480400F4908602B
:104070000846006800F48040009000BF00BF00BF09
:1040800000200090081F006840F08050091F086061
:104090000846006800F08050009000BF00BF00227A
:1040A0000F21901E00F012F808BD000044380240B5
:1040B00000280ADB00F01F01012202FA01F1400989
:1040C000800000F1E020C0F80011704710B4184BD8
:1040D0001B68C3F30223C3F1070CBCF1040F01D921
:1040E0004FF0040C1C1D072C01D2002300E0DB1E46
:1040F000012404FA0CFCACF1010C0CEA010199401A
:1041000004FA03F35B1E1A401143002806DB00F19A
:10411000E020090180F8001410BC704700F00F0087
:1041200000F1E020090180F8141D10BC7047000068
:104130000CED00E000F00700064A11684FF6FF039F
:10414000194041EA002040F0FD7040F080601060AE
:10415000704700000CED00E07047006841620020ED
:10416000704730B40368586A00291BD0D3F828C0C0
:1041700000EB1C4C00200129A1F101014FF48274D5
:1041800008D004EB80055D590CEB154C401CC0B207
:104190008842F6D304EB81014CEA0240585030BC0F
:1041A0000020704740EA02409862F8E710B50446E4
:1041B000D4F8040407F078F910BD70B504460D4634
:1041C000C5EBC50304F13C0101EB8301CA68294634
:1041D000D4F8040407F0B8F870BD70B504460D4675
:1041E000C5EBC50304F5FE7101EB8301CA682946DE
:1041F000D4F8040407F013F970BD10B50446D4F8E0
:10420000040407F053F910BD70B5044611F0800F97
:1042100001F00F00C0EBC00104EB81014FF001027F
:104220004FF0000502D03C314A7002E001F5FE710A
:104230004D70087094F8BC03012808D084F8BC23A2
:10424000206807F08BFD84F8BC53002070BD02206D
:1042500070BD70B5044601F00F026068824201D95A
:10426000012070BD01F00F00C0EBC00011F0800F05
:1042700004EB80004FF001034FF0000503D000F184
:104280003C014B7002E000F5FE714D708D700A70BC
:1042900094F8BC03012808D084F8BC33206807F0E8
:1042A0004FFF84F8BC53002070BD022070BD01F0A8
:1042B0000F01C1EBC10100EB8100D0F8140270477F
:1042C00070B5044611F0800F01F00F00C0EBC00183
:1042D00004EB81014FF0010C4FF0000503D03C319D
:1042E00081F801C002E001F5FE714D7008708A602E
:1042F000CB704A7802B1C880022B00D10D7194F8BE
:10430000BC03012808D084F8BCC3206807F060FC17
:10431000284684F8BC5370BD022070BD10B50C4611
:1043200004F00F0CCCEBCC0100EB810101F5FE7128
:10433000CA604B6100238B614B7081F800C0036938
:10434000012B00D10A6114F00F0F05D0027C006828
:1043500007F051FF002010BD027C006807F02AFE24
:10436000F8E770B504460D46616805F00F00884215
:1043700001D9012070BD15F0800F4FF000064FF0FD
:10438000010206D0C0EBC00104EB81013C314A7050
:1043900006E0C5EBC50104EB810101F5FE714E702D
:1043A0008A70087094F8BC03012808D084F8BC23F4
:1043B000206807F0F1FE15F00F0F02D007E0022091
:1043C00070BD217C04F57172206807F089FE84F8C5
:1043D000BC63002070BD10B50C4604F00F0CCCEB94
:1043E000CC0100EB81013C31CA604B6100238B6141
:1043F00001234B7081F800C00369012B00D10A61D1
:1044000014F00F0F05D0027C006807F0F4FE0020C6
:1044100010BD027C006807F0CDFDF8E72DE9F05FE4
:1044200004462568284608F037F800287ED1206821
:1044300008F05EF8002879D0206808F059F810F0EC
:10444000020F04D02068416901F002014161206837
:1044500008F04EF810F4002F4FF001094FF0080A51
:104460004FF0100B4CD00026206808F020F8804652
:104470005FEA080044D018F0010F3BD0F1B2206889
:1044800008F02EF8074617F0010F07D005EB46108D
:10449000C0F8089B3146204605F0A0FA17F0080F37
:1044A00007D03146204605F065FA05EB4610C0F806
:1044B00008AB17F0100F03D005EB4610C0F808BB8F
:1044C00017F0200F0DD02069012805D104F5717275
:1044D0000121206807F004FE05EB46112020C1F8F9
:1044E000080B17F4005F05D005EB46114FF40050A0
:1044F000C1F8080B761C4FEA5808B8F1000FBAD182
:10450000206807F0F5FF10F4802F64D0206807F0D2
:10451000C7FF07460026002F5DD017F0010F56D0C9
:10452000F1B2206807F0CAFF804600E08BE118F086
:10453000010F27D006F00F0009FA00F0D5F8341863
:104540008143C5F8341805EB4610C0F80899206976
:10455000012807D1C6EBC60004EB8000426C816CD9
:1045600011448164F1B22046FFF727FE206901283B
:1045700008D13EB9206D28B904F571720121206877
:1045800007F0AEFD18F0080F03D005EB4610C0F899
:1045900008A918F0100F03D005EB4610C0F808B9B1
:1045A00018F0400F04D005EB46114020C1F808096F
:1045B00018F0020F04D005EB46110220C1F80809DB
:1045C00018F0800F03D03146204605F07FFA761CA4
:1045D0007F08002FA1D1206807F08AFF10F0004F5C
:1045E00011D0D5F8040820F00101C5F8041894F89A
:1045F000F40301285BD0204600F046FA20684169A8
:1046000001F000414161206807F072FF10F4006F73
:104610000CD0D5F8080810F0010F02D0204600F0A9
:104620007FFA2068416901F400614161206807F068
:104630005FFF10F4805F60D0D5F8040820F001011E
:10464000C5F804181021206807F002FF00216068F7
:10465000002817D94FF67F3205EB4110C0F8082922
:10466000D0F8003923F40013C0F80039C0F8082B43
:10467000D0F8003B23F40013C0F8003B491C6068ED
:104680008842E9D8D5F81C0840F00111C5F81C187B
:10469000206BA0B1D5F8840840F00B01C5F8841850
:1046A000D5F8440840F00B01C5F8441814E0002088
:1046B00084F8F40300212046FFF74EFD9EE7D5F86D
:1046C000140842F22B010143C5F81418D5F810085C
:1046D00040F00B01C5F81018D5F8000820F4FE6171
:1046E000C5F80018217C04F57172206807F0F8FC09
:1046F0002068416901F480514161206807F0F8FEAB
:1047000010F4005F16D0206807F0B0FA206807F0B8
:10471000B3FEE06000F096FB23680146227B18465A
:1047200007F02CFF204600F097F92068416901F45A
:1047300000514161206807F0DBFE10F0100F36D009
:104740002068816921F0100181612F6A07F00F0054
:10475000C0EBC00004EB800000F5FE76C7F34340D9
:10476000022802D0062812D01CE047F6F07007425B
:1047700018D0C7F30A1217462846F16807F0BCFEA6
:10478000F0683844F060B0693844B0610AE008224B
:1047900004F57171284607F0AFFEB069C7F30A113E
:1047A0000844B0612068816941F01001816120688E
:1047B00007F09EFE10F0080F07D0204600F06BF9BE
:1047C0002068416901F008014161206807F090FE0E
:1047D00010F4801F08D00021204600F036F8206831
:1047E000416901F480114161206807F081FE10F4F5
:1047F000001F08D00021204600F030F820684169F1
:1048000001F400114161206807F072FE10F0804F42
:1048100007D02046FFF7CAFC2068416901F08041BB
:104820004161206807F064FE10F0040F0BD020688F
:10483000456815F0040F02D02046FFF7DEFC206823
:10484000416829434160BDE8F09F70B504460D46BC
:104850002946D4F8040406F08DFE70BD70B50446F8
:104860000D462946D4F8040406F086FE70BD2DE9F5
:10487000F0478AB00446002C05D0266894F8BD03A2
:10488000002520B108E00AB00120BDE8F08784F8D7
:10489000BC53204600F08CF8032084F8BD03F06B75
:1048A00010F4807F00D12561206807F07DFB04F1C2
:1048B0001000D4F82C8090E80F10A76A666A8DE883
:1048C0000F10CDF81C8006970596616B206B09913F
:1048D000089094E80F0007F0E3F9022728B184F864
:1048E000BD730AB00120BDE8F0870021206807F001
:1048F00015FE002160680126002813D9C1EBC10014
:1049000004EB800080F83D6080F83C10A0F8421075
:1049100080F83F50456485640565481CC1B26068F5
:104920008842EBD800216068002814D9C1EBC1008F
:1049300004EB800080F8FD5180F8FC1180F8FF51F5
:10494000C0F80452C0F80852C0F81052481CC1B256
:1049500060688842EAD804F11000D4F82CA090E8EE
:104960000F10D4F82890D4F824808DE80F10CDF8DB
:104970001CA0CDF81890CDF81480616B206B0991C4
:10498000089094E80F0007F049FA28B184F8BD7345
:104990000AB00120BDE8F08784F8385084F8BD6380
:1049A000206807F02FFA0AB00020BDE8F087000069
:1049B00010B586B00446142101A8FCF789FB2068D5
:1049C000B0F1A04F42D100BF002000902048006805
:1049D00040F001001E4908600846006800F0010030
:1049E000009000BF00BF4FF4C05001900220029021
:1049F00000200390032004900A20059001A9154887
:104A0000FEF7F6FF00BF1248001D006840F080006E
:104A10000F49091D086000BF002000900C481430A9
:104A2000006840F480400A49143108600846006874
:104A300000F48040009000BF00BF00BF00220521AD
:104A40004320FFF743FB4320FFF732FB06B010BDC6
:104A5000303802400000024070B504460125E0688D
:104A600008B9002506E0E068022801D1012501E02F
:104A7000FDF790FE2946D4F8040406F0EAFDD4F8C8
:104A8000040406F0ABFD70BD10B50446D4F8040470
:104A900006F0CDFD10BD10B50446D4F8040406F0B0
:104AA000CCFD10BD10B5044694F8BC0301280BD012
:104AB000012084F8BC0384F83810206807F046FD14
:104AC000002084F8BC0310BD022010BD10B50446C0
:104AD00004F57171D4F8040406F0D1FD10BD10B5D1
:104AE0000446206894F8BC13012906D0012184F8FB
:104AF000BC13A16A012902D008E0022010BDA169FF
:104B0000012903D0816B41F480318163206807F073
:104B10006DF9206807F083FC002084F8BC0310BD09
:104B200010B50446D4F8040406F0FAFD2068D0F865
:104B3000000E40F001002168C1F8000E206A28B183
:104B40000348006840F006000149086010BD0000FD
:104B500010ED00E02DE9F84304464FF001082078FD
:104B60004FF0000710F0050F33D0DFF84491C9F87B
:104B70006870FFF759F806464E4D286810F0006F30
:104B80000BD0FFF751F8801B022802D90320BDE8A3
:104B9000F883286810F0006FF3D16068217A8001F3
:104BA00040EA017044490860C9F86880FFF73CF8A2
:104BB0000646286810F0006F0BD1FFF735F8801B10
:104BC000022802D90320BDE8F883286810F0006F9E
:104BD000F3D0207810F0020F5CD03848016841F023
:104BE00080510160006800F080500090344D2868CA
:104BF00040F480702860FFF717F80646286810F424
:104C0000807F0BD1FFF710F8801B022802D9032008
:104C1000BDE8F883286810F4807FF3D0294D286818
:104C200000F4407028B3A18901F44071814220D082
:104C3000286820F440702449C1F800800F60286083
:104C4000286810F0010F14D0FEF7EEFF0646286822
:104C500010F0020F0DD141F28837FEF7E5FF801BFF
:104C6000B84202D90320BDE8F883286810F0020F8B
:104C7000F3D0E0684FF4407131EA000213490CD0E0
:104C8000086820F4F81008602868A189C1F30B01B6
:104C9000084328600020BDE8F8830A6820F44070CB
:104CA00022F4F81220F0704010430860ECE7000096
:104CB0000000474200380240843802404038024039
:104CC0000070004070380240400E474208380240F1
:104CD0002DE9F04704460D46002C13D0DFF8509123
:104CE000D9F80000EFB200F00F00A8420DD289F809
:104CF0000070D9F8000000F00F00A84205D0012094
:104D0000BDE8F0870120BDE8F0872068494E10F02B
:104D1000020F14D010F0040F03D0306840F4E050BC
:104D20003060207810F0080F03D0306840F4604005
:104D300030603068A16820F0F000084330602078CF
:104D400010F0010F3ED060683B49012808D00228CE
:104D50000DD003280BD0096811F0020F28D00AE00B
:104D6000096811F4003F06D10120BDE8F087096809
:104D700011F0007F19D0316821F003010843306041
:104D8000FEF752FF80463068616800F00C00B0EB1F
:104D9000810F17D041F2883AFEF746FFA0EB0800DA
:104DA000504508D90320BDE8F0870120BDE8F08711
:104DB0000120BDE8F0873068616800F00C00B0EBBE
:104DC000810FE9D1D9F8000000F00F00A8420AD9FC
:104DD00089F80070D9F8000000F00F00A84202D056
:104DE0000120BDE8F087207810F0040F05D030686E
:104DF000E16820F4E05008433060207810F0080F9C
:104E000006D03068216920F4604040EAC10030607B
:104E100000F03EF83168094AC1F30311515CC84003
:104E2000074908600F20FFF7F7F80020BDE8F0877A
:104E3000003C02400838024000380240C4B8010873
:104E4000A40000200148006870470000A400002072
:104E500000B5FFF7F7FF04490968044AC1F382214E
:104E6000515CC84000BD000008380240D4B80108B9
:104E700000B5FFF7E7FF04490968044AC1F342316E
:104E8000515CC84000BD000008380240D4B8010899
:104E900010B51748006810F00C01164816D0164BD4
:104EA000042912D0082911D1144C216801F03F02C5
:104EB000216811F4800F0AD02068C0F38810A0FB8D
:104EC00003010023FBF7ECFF09E0184610BD216841
:104ED0000023C1F38811A1FB0001FBF7E1FF21686A
:104EE000C1F30141491C4900B0FBF1F010BD0000C5
:104EF000083802400024F400001BB70004380240C8
:104F00002DE9F84F0446002C10D02078FA4D10F00F
:104F1000010F64D0F948016801F00C0104290DD09B
:104F2000006800F00C00082803D011E00120BDE863
:104F3000F88FF348006810F4800F09D0286810F447
:104F4000003F4CD06068002849D10120BDE8F88FAF
:104F50006068B0F5803F14D0B0F5A02F16D0286857
:104F600020F480302860286820F480202860606861
:104F700010B3FEF759FE0646286810F4003F0ED025
:104F80002DE0286840F480302860F0E7286840F47D
:104F900080202860286840F480302860E7E7FEF72A
:104FA00043FE801B642802D90320BDE8F88F2868DF
:104FB00010F4003FF3D012E0FEF736FE06462868F4
:104FC00010F4003F0BD0FEF72FFE801B642802D99F
:104FD0000320BDE8F88F286810F4003FF3D1207853
:104FE000C84F10F0020F4FF0000856D0C3480168B8
:104FF00011F00C0F15D0006800F00C00082804D147
:10500000BF48006810F4800F0BD0E06878B301202F
:105010003860FEF709FE0646286810F0020F12D02D
:105020001DE0286810F0020F05D0E068012802D0CA
:105030000120BDE8F88F2868216920F0F80040EAD7
:10504000C100286029E0FEF7EFFD801B022802D98D
:105050000320BDE8F88F286810F0020FF3D028680D
:10506000216920F0F80040EAC100286015E0FFE760
:10507000C7F80080FEF7D8FD0646286810F0020F3A
:105080000BD0FEF7D1FD801B022802D90320BDE81A
:10509000F88F286810F0020FF3D1207810F0080F75
:1050A00033D09948DFF864926169B9B10121016098
:1050B000FEF7BAFD0646D9F8000010F0020F24D121
:1050C000FEF7B2FD801B022802D90320BDE8F88F4D
:1050D000D9F8000010F0020FF2D016E0C0F80080FE
:1050E000FEF7A2FD0646D9F8000010F0020F0CD022
:1050F000FEF79AFD801B022802D90320BDE8F88F35
:10510000D9F8000010F0020FF2D1207810F0040F4F
:1051100073D04FF00009DFF8F8A1DAF8000010F0C2
:10512000805F0CD1DAF8000040F08050CAF800002F
:10513000DAF8000000F0805000904FF00109DFF82D
:10514000D4B1DBF8000010F4807F1AD1DBF8000046
:1051500040F48070CBF80000FEF766FD0646DBF8F1
:10516000000010F4807F0CD1FEF75EFD801B02284A
:1051700002D90320BDE8F88FDBF8000010F4807F2F
:10518000F2D0A068DFF890B1012818D005281DD012
:10519000DBF8000020F00100CBF80000DBF8000095
:1051A00020F00400CBF80000A06838B3FEF73CFD07
:1051B0000646DBF8000010F0020F14D03CE0DBF8EC
:1051C000000040F00100CBF80000EDE7DBF8000044
:1051D00040F00400CBF80000DBF8000040F00100D4
:1051E000CBF80000E0E7FEF71FFD811B41F288309D
:1051F000814204D90320BDE8F88F26E005E0DBF802
:10520000000010F0020FEED016E0FEF70DFD06468E
:10521000DBF8000010F0020F0ED0FEF705FD811B39
:1052200041F28830814202D90320BDE8F88FDBF8D3
:10523000000010F0020FF0D1B9F1010F05D1DAF83A
:10524000000020F08050CAF80000A069E8B32B49A4
:10525000096801F00C0108296BD0022810D0C7F8AA
:105260006080FEF7E1FC0446286810F0007F5ED005
:10527000FEF7DAFC001B022855D90320BDE8F88FA1
:10528000C7F86080FEF7D0FC0646286810F0007F63
:105290000BD0FEF7C9FC801B022802D90320BDE811
:1052A000F88F286810F0007FF3D1216AE069A26AC4
:1052B0000843616A4FF0FF33890103EB520241EA70
:1052C0000241084394F82C1000E030E040EA01610C
:1052D0000B48016001203866FEF7A6FC04462868EA
:1052E00010F0007F23D1FEF79FFC001B022815D988
:1052F0000320BDE8F88F1CE0003802400838024067
:105300000438024000004742800E47427438024091
:10531000403802400070004070380240286810F0A9
:10532000007FE0D003E0286810F0007FA0D10020CB
:10533000DFE70120DDE770B50446002C03D060797B
:10534000002510B105E0012070BD2571204600F058
:105350000DF8022060712068016841F004010160CD
:1053600001206071A560002070BD000008B50A4AE8
:10537000016891420FD100BF0021009107490968DF
:1053800041F04001054A11601146096801F04001F1
:10539000009100BF00BF08BD00080650343802402D
:1053A00070B50446002C02D0607F10B106E00120E9
:1053B00070BD00202077204600F050F80220607772
:1053C0002168CA204862216853204862204604F0C0
:1053D00045FDFF25042620B120684562667701203F
:1053E00070BD2068816821F0400121F4E0018160F6
:1053F0002068816862686369114322691A43114316
:1054000081602168E068086120680169228941EAB9
:10541000024101612068C16821F08001C1602068FB
:10542000806810F0200F08D1204600F023F820B14A
:10543000206845626677012070BD2068016C21F408
:10544000802101642068016CA26911430164206815
:10545000456201206077002070BD0000034A0168AA
:10546000914202D10121024A116070470028004098
:105470003C0E474270B504462068C16821F0A00187
:10548000C160FEF7D1FB05462068C06810F0200F10
:105490000CD1FEF7C9FB401BB0F57A7F01D9032080
:1054A00070BD2068C06810F0200FF2D0002070BDE1
:1054B00070B50446002C05D00025A56294F8510073
:1054C00010B106E0012070BD84F85050204600F075
:1054D00031F8022084F851002068016821F0400171
:1054E0000160A168606822690843E16811430843CC
:1054F00061690843218B01F400710843E1690843A5
:10550000216A0843A16A084321680860A069042150
:1055100001EA1040616A0843216848602068C16957
:1055200021F40061C1616565012084F8510000200B
:1055300070BD000010B586B00446142101A8FBF729
:10554000C7FD6749206888427ED100BF00200090D7
:105550006448006840F4805062490860084600686A
:1055600000F48050009000BF00BF00BF00200090FA
:105570005C481438006840F002005A491439086049
:105580000846006800F00200009000BF00BF00BFA6
:10559000002000900846006840F0010008600846BE
:1055A000006800F00100009000BF00BF18200190CB
:1055B0000220029001200390032004900520059012
:1055C00001A94948FEF714FA8020019002200290B8
:1055D00001200390032004900520059001A9434871
:1055E000FEF706FA4248434908604FF0C060486041
:1055F000002140488160C1604FF480610161002159
:1056000041618161C1614FF4403101620021416219
:10561000FEF756F908B1FDF7BDF800BF3548E06464
:10562000846300BF32481830334908604FF0C060CF
:1056300048604021304881600021C1604FF48061A2
:1056400001610021416100E010E08161C1614FF41E
:105650000031016200214162FEF732F908B1FDF725
:1056600099F800BF2448A064846336E02349206889
:10567000884232D100BF002000901A48001F006805
:1056800040F480401749091F08600846006800F48C
:105690008040009000BF00BF00BF00200090114874
:1056A0001438006840F002000E49143908600846BA
:1056B000006800F00200009000BF00BF4FF460409F
:1056C0000190022002900120039003200490052005
:1056D000059001A90448FEF78BF906B010BD000043
:1056E0000030014044380240000402400000024003
:1056F000406402401C1200207C1200200038004050
:105700002DE9F84F04460A9E8A4693461F46012516
:105710004FF0000894F8500001280ED0012084F8C2
:105720005000FEF781FA814694F851006168012823
:105730000ED0B1F5827F07D102E00220BDE8F88FDC
:10574000A16809B9042803D04FF0020800F0CBB8D3
:10575000BAF1000F1DD0BBF1000F1AD0380018D0DD
:1057600094F85100042802D0052084F8510000204C
:105770006065C4F838B0E787A787C4F830A0E7862B
:10578000A786206460642068016811F0400F03D090
:1057900006E04FF00108A6E0016841F04001016019
:1057A000E068B0F5006F05D06068002848D0012F90
:1057B00046D07EE0606808B1012F3AD1206B2168A5
:1057C0000088C860206B801C2063E08E401EE0864D
:1057D0002FE02068816811F0020F0DD0E18E59B1E1
:1057E000012D09D1216B0988C160206B801C2063C9
:1057F000E08E401EE08600252068816811F0010FD0
:105800000BD0E18F49B1C068A16B0880A06B801CF0
:10581000A063E08F401EE0870125FEF705FAA0EBAC
:105820000900B04205D3B6F1FF3F02D04FF00308A4
:1058300059E0E08E0028CCD1E08F0028C9D13EE0AD
:10584000206B216800780873206B401C2063E08E79
:10585000401EE0862DE02068816811F0020F0DD017
:10586000E18E59B1012D09D1216B09780173206BAB
:10587000401C2063E08E401EE08600252068816881
:1058800011F0010F0BD0E18F49B1C068A16B087016
:10589000A06B401CA063E08F401EE0870125FEF74F
:1058A000C3F9A0EB0900B04202D3B6F1FF3F11D11A
:1058B00086B1E08E0028CED1E08F0028CBD14A46B9
:1058C0003146204604F0ECFA38B14FF001082020B0
:1058D000606508E04FF0030805E0A06818B920688B
:1058E000C16880680090012084F85100002084F88D
:1058F00050004046BDE8F88F401EB0F1807F01D3D4
:10590000012070474FF0E0214861044AF0201070F8
:1059100000208861072008610020704723ED00E027
:1059200090F83C20012A2CD0012280F83C20CA6843
:105930000023D1F808C022F4407242EA0C02D1F8E8
:1059400004C022F4806242EA0C02D1F800C022F4C2
:10595000006242EA0C02D1F810C022F4805242EAFE
:105960000C02D1F814C022F4005242EA0C02C969B8
:1059700022F4804211430268516480F83C300020D8
:1059800070470220704730B490F83C20012A1ED0A6
:10599000012480F83C40022280F83D200268D2F8C1
:1059A00004C093682CF0700C0D6845EA0C0C23F0D1
:1059B000800349681943C2F804C00268916080F806
:1059C0003D40002180F83C1030BC0020704730BCC6
:1059D0000220704710B50446002C03D094F83D0017
:1059E00010B107E0012010BD002084F83C002046E3
:1059F00000F00CF8022084F83D00211D206804F01E
:105A000083FB012084F83D00002010BD08B53F4A0B
:105A1000016891420FD100BF002100913C49096803
:105A200041F001013A4A11601146096801F0010193
:105A3000009100BF69E0374A0168914211D100BF6F
:105A4000002100913249091F096841F00201304AE2
:105A5000121F11601146096801F00201009100BF98
:105A600053E02D4A0168914211D100BF00210091FD
:105A70002749091F096841F00401254A121F1160D6
:105A80001146096801F00401009100BF3DE0234A7E
:105A90000168914211D100BF002100911C49091FEA
:105AA000096841F008011A4A121F1160114609687D
:105AB00001F00801009100BF27E0194A01689142F6
:105AC0000FD100BF002100911149096841F0020186
:105AD0000F4A11601146096801F00201009100BFF0
