:020000040800F2
:1000000038ED002049030008D9AD0008FD7D000847
:10001000D5AD0008FB2A0008F9FA0008000000002E
:10002000000000000000000000000000890200083D
:10003000B13C000800000000E502000805B7000818
:1000400063030008630300086303000863030008F8
:100050006303000863030008B33C0008630300085F
:1000600063030008BD3C0008C73C000863030008A8
:1000700063030008630300086303000863030008C8
:1000800063030008630300086303000863030008B8
:10009000012B00086303000863030008D13C00083B
:1000A0006303000863030008630300086303000898
:1000B0006303000863030008630300086303000888
:1000C0006303000863030008630300086303000878
:1000D00063030008ADDD000863030008BDDD000810
:1000E0006303000863030008630300086303000858
:1000F000630300086303000863030008FD38000879
:100100006303000863030008630300086303000837
:100110006303000863030008630300086303000827
:1001200063030008793900086303000863030008CB
:100130006303000863030008630300086303000807
:10014000112B00086303000863030008ADB000082A
:100150008939000899390008A9390008EDDE00083E
:1001600063030008630300086303000863030008D7
:100170006303000863030008630300080000000035
:10018000630300086303000800F002F800F06DF854
:100190000AA090E8000C82448344AAF10107DA45E2
:1001A00001D100F062F8AFF2090EBAE80F0013F0C7
:1001B000010F18BFFB1A43F00103184790660100B6
:1001C000B06601000A444FF0000C10F8013B13F038
:1001D000070408BF10F8014B1D1108BF10F8015BA0
:1001E000641E05D010F8016B641E01F8016BF9D193
:1001F00013F0080F1EBF10F8014BAD1C0C1B09D1EA
:100200006D1E58BF01F801CBFAD505E014F8016B5B
:1002100001F8016B6D1EF9D59142D6D370470000ED
:100220000023002400250026103A28BF78C1FBD8FF
:10023000520728BF30C148BF0B607047662915F0D0
:10024000DB81002070471FB515F01EF99DE8030003
:1002500001F08AF801F0FAFA04000020002113F0FE
:100260002FFFE0601FBD10B510BD01F029FC114645
:10027000FFF7E9FF11F0F0FC01F047FC03B4FFF7D2
:10028000F2FF03BC01F0BEFC2C4B19680868B0E813
:10029000F04F80F30988BFF36F8F4FF0000080F3B9
:1002A000118870470000000008480068006880F36B
:1002B00008884FF0000080F3148862B661B6BFF37F
:1002C0004F8FBFF36F8F00DF00BF00BF08ED00E06E
:1002D000DFF80C00016841F470010160704700BF55
:1002E00088ED00E0EFF30980BFF36F8F134B1A68BE
:1002F0001EF0100F08BF20ED108A20E9F04F1060AB
:1003000009B44FF0500080F31188BFF34F8FBFF353
:100310006F8F13F0E9F84FF0000080F3118809BCEB
:1003200019680868B0E8F04F1EF0100F08BFB0EC75
:10033000108A80F30988BFF36F8F7047040600208E
:10034000EFF30580704700000948804709480047DF
:10035000FEE7FEE7FEE7FEE7FEE7FEE7FEE7FEE775
:10036000FEE7FEE704480549054A064B70470000D2
:10037000EDB700088901000838AD002038ED0020F5
:1003800038CD002038CD00209FED1A1AF5EE000A76
:1003900040EE010ABDEEE00AF5EEC00A10EE100ACA
:1003A000F1EE10FA38BF401E00EE100A1349F7EEC6
:1003B000001AB8EEC00A30EEC00ADFED0F0A20EED8
:1003C000200AFCEEC00A10EE900AC0F3080000EE0E
:1003D000900A01EB8000F8EE600A90ED011A70EED1
:1003E000600A90ED000A71EEE01A21EE800A00EE3C
:1003F000810A704783F9223E000000446C5F0108C7
:10040000DFED190AB5EEC00A60EE200ABDEEE01A73
:1004100011EE100AF1EE10FA38BF401E00EE100A7D
:100420001349F7EE001AB8EEC00A30EEC00ADFED4D
:100430000F0A60EE200ABCEEE00A10EE100AC0F3CC
:10044000080000EE100A01EB8000B8EE400A90EDC3
:10045000011A70EEC00A90ED000A71EEE01A21EE6A
:10046000800A00EE810A704783F9223E00000044B2
:100470006C5F010870B405880E884468D1F804C028
:100480005368B54208D140884988884201BF118825
:100490008D425188884203D070BC6FF002007047D3
:1004A00005FB00F1880827D094ED001ADCED000A66
:1004B00094ED010ADCED011A31EE201AD4ED020AA6
:1004C00070EE211A9CED020A83ED001AC3ED011AA9
:1004D00094ED031ADCED031A30EE800A401E71EE33
:1004E000210A83ED020A04F11004C3ED030A03F1AB
:1004F00010030CF1100CD7D111F0030030D0B0F183
:10050000004F30D200282BDD211F1B1FACF104024D
:1005100010F0010F0AD091ED010AD2ED010A091D78
:10052000121D30EE200A83ED010A1B1D400817D072
:1005300091ED010AD2ED010A401E30EE200A83ED52
:10054000010A91ED020AD2ED020A01F1080102F15D
:10055000080230EE200A83ED020A03F10803E7D116
:1005600070BC00207047B4EC010A401EFCEC010A8C
:1005700030EE200AA3EC010AF5D1F1E701804280B8
:10058000436070472DE9F34F84B0049840680090B1
:10059000486801900498B0F800E04588DFEDFE0A55
:1005A00000200290B0EE600AAE4506D10888498866
:1005B000884204BF7146864504D06FF0020006B041
:1005C000BDE8F08F01985FEA010C18BFB7EE001A82
:1005D0003DD000BFBEEB0C0117D0B1F1004F80F051
:1005E0001F82002911DD021F11F0010F1CBFC2ED97
:1005F000010A121D4B1006D0C2ED010AC2ED020A1B
:1006000008325B1EF8D100EB8100BCF10102A0ECC6
:10061000011A19D0B2F1004F80F00882002A13DDD0
:10062000031F12F0010F1CBFC3ED010A1B1D511067
:1006300008D000BFC3ED010AC3ED020A491E03F151
:100640000803F7D100EB8200BCF1010CC2D14FF0DE
:1006500000080395002D14BFB0EE602A002000F0C2
:10066000BF8100BF009908FB05F001EB800B0199E9
:10067000DBED002A01EB80000346F0EE421AC6458E
:1006800052D9AEEB0802ABEB850112F0010F17D087
:1006900001EB850191ED000AB5EEC00AF1EE10FA0A
:1006A00007DDB4EEE10AF1EE10FA09DDF0EE401AD2
:1006B00006E0B1EE400AF4EEC01AF1EE10FAF5D3FE
:1006C000521031D001EB850C9CED000AB5EEC00A4A
:1006D000F1EE10FA05DDB4EEE10AF1EE10FA09DDF3
:1006E00006E0B1EE400AF4EEC01AF1EE10FA01D2C3
:1006F000F0EE401A01EBC50191ED000AB5EEC00A1B
:10070000F1EE10FA05DDB4EEE10AF1EE10FA09DDC2
:1007100006E0B1EE400AF4EEC01AF1EE10FA01D292
:10072000F0EE401A521ECDD1F5EEC01AF1EE10FADD
:1007300000F07381F5EEC02A0126F1EE10FA00995F
:10074000D4BFB1EE620AB0EE620AB4EE610AF1EE15
:1007500010FA1CBFAEEB0802B2F1010C47D005FB4A
:1007600008F201EB820292ED001A00BFB0EE410ADE
:1007700005FB06F4B5EEC00A00EB8404F1EE10FAB6
:10078000CCBFF0EE400AF1EE400AF4EE610AF1EE61
:1007900010FA28D1B5EB080C11D0BCF1004F7DD276
:1007A000BCF1000F0BDD00BF92ED000AD1ED000A95
:1007B000BCF1010CE2EC010AA1EC010AF4D1290020
:1007C0000ED0B1F1004F6AD2002909DD94ED000A84
:1007D000D0ED000A491EE4EC010AA0EC010AF5D1B3
:1007E000012002900BE0761CBCF1010CBED10298F6
:1007F000012804D0F5EEC02AF1EE10FA7ED09BED70
:10080000000AB5EB08009A465946064622D0B0F1D8
:10081000004F74D200281DDD091F10F0010F06D013
:10082000F0EE400A80EEA01A81ED011A091D401079
:1008300010D000BFD1ED010A401E80EE801A81ED7C
:10084000011A91ED021AC1EE000AC1ED020A01F18E
:100850000801EFD1280026D0B0F1004F7ED2002849
:1008600021DDAAF1040110F0010F06D0D1ED010A3B
:1008700080EE801A81ED011A091D401013D000BFCF
:10088000D1ED010A401E80EE801A81ED011AD1EDF2
:10089000020A80EE801A81ED021A01E0CBE0D6E078
:1008A00001F10801ECD1DDE900124FF000095FEA27
:1008B0000E0773D0C14504BF01EB860102EB850230
:1008C00074D091ED000ADC465046330035D01C460A
:1008D000B6F1004F7ED2002C2FDD0B1FABF1040CC4
:1008E00016F0010F0FD0F0EE400ADCED011AB0EE69
:1008F000601A00EEE11A83ED011A01E08DE0B1E02B
:100900001B1D0CF1040C741015D000BFD3ED010AAF
:100910009CED011A40EE410AC3ED010AD3ED020A33
:100920009CED021A0CF1080C40EE410AC3ED020ADC
:100930000833641EEAD101EB86012B0036D0B3F1F7
:10094000004F72D2002B31DDA2F1040CAAF1040099
:1009500013F0010F0CD0DCED010A00E08BE090ED0C
:10096000011A001D40EE410ACCED010A0CF1040C05
:100970005C1019D0DCED010A90ED011A40EE410A3D
:10098000CCED010ADCED020A90ED021A083040EECF
:10099000410ACCED020A03E0000000000DE005E092
:1009A000641E0CF1080CE5D102EB830201EB880117
:1009B0007F1E09F101097FF47DAF009808F101085D
:1009C000001D00900398401E03907FF44BAE0299E7
:1009D000012900E058E004BF06B0BDE8F08F00BF79
:1009E000B5EEC00AF1EE10FA7FF4E9AD04990EFB02
:1009F00005F3002B4A684FF000010BD902EB810C84
:100A00009CED000AB5EEC00AF1EE10FA02D1491CC5
:100A10008B42F3D88B427FF4D2AD6FF00400CEE569
:100A2000E0EC010A491EFBD1EFE538E0E0EC010AF9
:100A3000521EFBD108E692ED000AD1ED000ABCF18E
:100A4000010CE2EC010AA1EC010AF4D1B7E694ED45
:100A5000000AD0ED000A491EE4EC010AA0EC010AEC
:100A6000F5D1BDE6D1ED000A401E80EE801AA1EC62
:100A7000011AF7D1EEE6D3ED000A401E80EE801A8F
:100A8000A3EC011AF7D10EE7BCEC011AD1ED000A74
:100A90005B1E40EE410AE1EC010AF5D14DE7B0ECF6
:100AA000011AD2ED000A5B1E40EE410AE2EC010A97
:100AB000F5D17BE72DE9F04F82B04668536801938A
:100AC000058847884B88002000900888874201BF2E
:100AD000B2F800C06545528893421EBF6FF0020015
:100AE00002B0BDE8F08F9FED412A4FEA970EC7F3A1
:100AF000400B00BFDDE9000202EB800A4A6898461D
:100B00004FF00009B0EE420AB4465FEA0E0025D06D
:100B100092ED001ADCED001A02EB8302DCED010A13
:100B200001EE810A92ED001A02EB8302401ED2ED23
:100B3000001A02EB830200EE810A9CED021ADCED42
:100B4000030A00040CF1100C000C01EE210A92EDD6
:100B5000001A02EB830200EE810AD9D117F00300DC
:100B600026D0ACF10404A2EB830210F0010F08D0F0
:100B700002EB8302D4ED010A92ED001A241D00EE6F
:100B8000810A5FEA0B0013D002EB830CD4ED010A5B
:100B90009CED001A02EBC302401E00EE810AD4ED68
:100BA000020A92ED001A04F1080400EE810AEBD16A
:100BB00009F10100AAEC010A1FFA80F9486800EB6C
:100BC0008902A8F101001FFA80F8B8F1000F99D14D
:100BD000009806EB8706184480B20090681E050452
:100BE0002D0C87D102B00020BDE8F08F000000007E
:100BF00070B405880E884468D1F804C05368B542C3
:100C000008D140884988884201BF11888D425188A7
:100C1000884203D070BC6FF00200704705FB00F102
:100C2000880827D094ED001ADCED000A94ED010A43
:100C3000DCED011A31EE601AD4ED020A70EE611A91
:100C40009CED020A83ED001AC3ED011A94ED031A1C
:100C5000DCED031A30EEC00A401E71EE610A83ED2E
:100C6000020A04F11004C3ED030A03F110030CF1AE
:100C7000100CD7D111F0030030D0B0F1004F30D2BA
:100C800000282BDD211F1B1FACF1040210F0010F07
:100C90000AD091ED010AD2ED010A091D121D30EEB4
:100CA000600A83ED010A1B1D400817D091ED010A6F
:100CB000D2ED010A401E30EE600A83ED010A91ED8B
:100CC000020AD2ED020A01F1080102F1080230EE37
:100CD000600A83ED020A03F10803E7D170BC00202B
:100CE0007047B4EC010A401EFCEC010A30EE600AC9
:100CF000A3EC010AF5D1F1E72DE9F04F028847682E
:100D0000B0F802804888D1F8049082B04FF0000A11
:100D10001646824207BF098888456FF0020002B07C
:100D200018BFBDE8F08F4FEA980B02EB420001902C
:100D3000C8F34000CDF8000009EB8A01BBF1000FB9
:100D400033D0019801EB820C01EB80043B46E64670
:100D500001EBC2054FEA0B0093ED000A401E81ED46
:100D6000000A93ED010A01EB02118CED000A93EDEC
:100D7000020A0CEB021C85ED000A93ED030A05EB59
:100D8000021584ED000A04EB021403F11003E3D111
:100D90000EEB820000EB820000EB8201ABF1010060
:100DA000504307EB0B1701EB001118F0030C21D097
:100DB0003B1FA1EB82011CF0010F06D093ED010A4D
:100DC00001EB82011B1D81ED000A009880B100BF7C
:100DD00093ED010A01EB820401EBC20184ED000AEC
:100DE00093ED020A401E81ED000A03F10803EFD1E2
:100DF00007EB8C070AF101001FFA80FA701E060447
:100E0000360C99D102B00020BDE8F08F70B50646CF
:100E100000F08EFA056806F10B0020F00704B442DA
:100E20009CBF002070BD2B466A68BAB11068A04212
:100E300010D304F1080188423CBF5068586007D3C2
:100E40005168101941601168091B016058601460F5
:100E5000101D70BD13465268002AE7D1214628466E
:100E600000F06EFA0028DED170BD70B50446051F93
:100E700000F05EFA0068002C14BF446870BD002CBE
:100E800018BFAC423CBF20466468F8D301680A181A
:100E9000AA4218BF456003D12A6805461144016083
:100EA00028684119A1421CBF6C6070BD616869600F
:100EB00021680844286070BD53EA020C00F0698084
:100EC0002DE9F04B4FF00006002B1FBFB3FA83F55E
:100ED00003FA05F424FA05F65E4012BF1643B2FA8F
:100EE00082F502FA05F4C5F120051EBF22FA05FCC1
:100EF00044EA0C04203556EA044C4FEA144418BF67
:100F0000641C4FF000084FF00009904271EB030C95
:100F100039D3002919BFB1FA81F701FA07F6B0FAFF
:100F200080F700FA07F6C7F120071EBF20FA07FC7A
:100F300046EA0C062037B6FBF4FCA7EB0507103F8A
:100F400007F01F0BCBF120060CFA0BFB2CFA06F670
:100F500044BFB3460026202FA4BF5E464FF0000BCF
:100F60005BEA060C08BF4FF0010B19EB0B09ABFB5A
:100F7000027C48EB0608C01B06FB02CC0BFB03CC33
:100F800071EB0C01C1E70B46024641464846BDE8FD
:100F9000F08B13B54FF000004FF00001AFF300806D
:100FA000BDE81C40704700000FB41CB5084B06AAF2
:100FB0007B4469460090059800F02BFC0446002015
:100FC000694600F039FC20461CBC5DF814FB0000AB
:100FD000850800002DE9F05F894604464FF0000ABD
:100FE000DFF874B1FB44C0F820A02046E1688847D0
:100FF000002874D0252806D0D4E901219047206A22
:10100000401C2062F1E700265F462046E1688847E1
:101010002028054607DB312D05D2781910F8200C61
:1010200008B10643F1E7B00701D526F00406C4F87D
:101030001CA00027C4F818A02A2D09D028460FF0BC
:1010400080F838B304EB8708303DC8F8185019E031
:1010500059F8041B204604EB87029161E168884738
:10106000012F054618D1E069002820DA26F0200675
:101070001DE0D8F8180000EB800005EB4000303888
:10108000C8F818002046E168884705460FF059F86F
:101090000028EED1012F0AD02E2D08D12046E1687C
:1010A00088477F1C0546022F46F02006C4DBA06956
:1010B000002803DA404246F00106A061F00701D0A3
:1010C00026F010066C2D0BD0682D09D04C2D39D090
:1010D0006A2D35D0742D35D07A2D33D016E038E016
:1010E000E1682F4620468847B842054609D16C2F53
:1010F00026D04FF48060E1680643204688470546C5
:1011000004E06C2F1AD04FF4807006430DB3A5F1A4
:101110004100192802D8203546F400664A4629467F
:10112000204626604E46FFF789F880B101280BD093
:10113000F61D26F0070000F1080956E74020E4E715
:101140008020D8E70020D6E706F104094DE72846BD
:1011500052E7206ABDE8F09F8857010010B5431C94
:1011600002E010F8011B71B18107FAD14FF0013292
:1011700002C88C1A8C4314EAC211F9D0C01A0A06AC
:1011800003D0C01E10BDC01A10BD0A0401D0801EBD
:1011900010BD0902FCD0401E10BD032A40F2308071
:1011A00010F0030C00F0158011F8013BBCF1020FA8
:1011B000624498BF11F801CB00F8013B38BF11F829
:1011C000013BA2F1040298BF00F801CB38BF00F840
:1011D000013B11F0030300F02580083AC0F00880BD
:1011E00051F8043B083A51F804CBA0E80810F5E7A1
:1011F000121D5CBF51F8043B40F8043BAFF3008084
:10120000D20724BF11F8013B11F801CB48BF11F8F8
:10121000012B24BF00F8013B00F801CB48BF00F8C8
:10122000012B704710B5203AC0F00B80B1E8185080
:10123000203AA0E81850B1E81850A0E81850BFF4C0
:10124000F5AF5FEA027C24BFB1E81850A0E818505F
:1012500044BF18C918C0BDE810405FEA827C24BFB3
:1012600051F8043B40F8043B08BF7047D20728BF41
:1012700031F8023B48BF11F8012B28BF20F8023B90
:1012800048BF00F8012B704702F0FF0343EA032236
:1012900042EA024200F002B84FF000020429C0F016
:1012A000128010F0030C00F01B80CCF1040CBCF198
:1012B000020F18BF00F8012BA8BF20F8022BA1EBEA
:1012C0000C0100F00DB85FEAC17C24BF00F8012BCF
:1012D00000F8012B48BF00F8012B70474FF00002C7
:1012E00000B5134694469646203922BFA0E80C501C
:1012F000A0E80C50B1F12001BFF4F7AF090728BFF7
:10130000A0E80C5048BF0CC05DF804EB890028BF72
:1013100040F8042B08BF704748BF20F8022B11F09B
:10132000804F18BF00F8012B704770477047704717
:1013300000487047E0AC0020704770477047704726
:1013400038B504460A4600206946AFF300800028FD
:1013500008BF38BD02460099204600F07FFA012000
:1013600038BD012000F0A4BBF8B5AFF300800546FE
:1013700000200C46102000BF0646A819A0420DD937
:10138000324669460020AFF30080070008BF00F036
:101390008FFB0098A04218BF0546C419FFF7C8FF8D
:1013A00005600746F01D20F007004619284600F0AA
:1013B0000AF8B44208BFF8BDA21B31463868BDE840
:1013C000F84000F04BBA00210160C0E901107047FD
:1013D0001020704710B500F03DFA006810BD10B540
:1013E000044600F037FA046010BD70472DE9FF4F46
:1013F0000C461E464FF0FF378BB0D2E90001DDF8F6
:1014000060800A908A46C1F30A5505B93D4600211D
:10141000084614F0E1F8BAF1000F00F4400005DAD4
:1014200000EB80004FF4400101EA50004FEA905970
:10143000B9F1010F00DDB9460A9850EA4A000ED012
:1014400044F61050A5F2FF3545432F14B8F1000FB4
:101450001ED07542291E1EDDC9F100021CE0B8F144
:10146000010F4FF0000001D0302103E0F24305E00E
:101470002154401CB042FBDB3046002200212154A5
:101480000B99C1F80880C1E900200FB0BDE8F08FCA
:10149000BD1B6D1CDEE74A4600DA694206A800F073
:1014A00095FA06AB93E8070003AB83E807005046C4
:1014B0000A9900F024FC8DE80700A0F500501F38C1
:1014C00000900398002D0ADD42F21F014A460844AD
:1014D000002303A90390684600F08DFE09E0A0F503
:1014E00000504A461F38002303A90390684600F0C5
:1014F00097FE8DE807000004000C03D04FF0FF308A
:10150000410800E01046B8F1000F03D0002200921D
:1015100015461EE0751E05D400F0BAF9303262554A
:101520006D1EF9D5B3460122084302D000227F1C6C
:1015300004E02078302801D100227F1E002A09977C
:1015400084D01DE0112D07DA00F0A2F93032625587
:101550006D1C50EA0102F5D1084302D00098C8B1D1
:101560000EE00021681E05E0235C625C6354225497
:10157000401E491C8142F7DBAB46A81B401E099068
:10158000002004F80B000B98099AC0F80880C0E905
:10159000002B7AE711264FF0000857E72DE9F04FAE
:1015A00088460446D21D22F0070191B0D1E900011E
:1015B000CDE90A010EF0A2FA02460B98C00F01D045
:1015C0002D2007E02068810701D52B2002E0202193
:1015D00001EAC000032A099001D0072A05DB03466F
:1015E0004146204600F0B2F90BE12078800601D593
:1015F000E06900E00620B8F1650F814606D0B8F139
:10160000660F18D0B8F1670F70D131E00020B9F142
:10161000110F009001DB112301E009F101030AAA77
:1016200001A90CA8FFF7E2FEDDE90C70002609F124
:101630000105834647E001204B4600904FF00047EC
:101640000AAA01A90CA8FFF7D1FEDDE90DB00C999B
:101650005D46002610B909F101000D18B9EB05002F
:1016600003D4C0F1FF3609F10105A5EB09002BE019
:10167000B9F1010F01DA4FF001090020B9F1110FA2
:101680000090484601DD112300E003460AAA01A9A3
:101690000CA8FFF7ABFEDDE90C704D460026834633
:1016A000207800070AD4AB4500DA5D4601A8012D79
:1016B00004DD411911F8011C302907D04F4502DA29
:1016C00017F1040F04DA012082460FE06D1EEEE7E9
:1016D000002F02DCED1B3E4403E0781CA84200DD35
:1016E0007D1CB81B00F1010A4FF00047207800076D
:1016F00003D4AA4501DB4FF0FF3A0021B7F1004FB8
:101700000DF143088DF8431024D002202B23002F25
:1017100001DA7F422D230A21021EA0F1010000DC24
:101720005FB197FBF1FC97FBF1F201FB1C7C1746C4
:101730000CF1300C08F801CDEEE7A8F101000370C0
:101740002188090501D5452100E06521A0F10108A6
:1017500000F8011C09980FA9A1EB0807FF1D00B1B3
:101760000120411901EBEA70A1693844081A401EB2
:10177000A0612078C00602D42046AFF3008009980B
:1017800028B1D4E901219047206A401C20622078CA
:10179000C00622D52046AFF300801EE0002E04DBF9
:1017A000B34502DD01A8805D00E03020D4E90121CD
:1017B0009047206A401C2062761CAAF101005FEA73
:1017C000000A0AD100F042F8C0680168405CD4E920
:1017D00001219047206A401C2062281EA5F10105C6
:1017E000DCDC07E0D4E9012118F8010B9047206AFE
:1017F000401C2062381EA7F10107F3DC2046AFF33E
:101800000080032011B041E601694A1C026108789A
:10181000704700B58FB0CDE9013100210591054930
:101820007944CDE9031011466846FFF7D3FB0FB0AA
:1018300000BD0000E5FFFFFF0A6802F8010B0A6027
:101840007047000000487047D8AC0020004870473F
:10185000F8AC002000487047D8AC00200346406830
:101860008C46002818BF88423CBF03464068F8D326
:1018700018681844884207D00CF1030020F00700D4
:10188000001D411A521A0146081D0A60FFF7EDBA01
:1018900030B5B0F10A024FEA900E71F100034EEA42
:1018A000817EB0EB0E0061EB91014FEA101E4EEA13
:1018B000017E10EB0E0041EB11114FEA102E4EEAA3
:1018C000016E10EB0E0041EB11214FEA104E4EEA73
:1018D000014E10EB0E0041EB1141401841F10001A7
:1018E0004FEAD00040EA41704FEAD10110EB800589
:1018F0004FEA810444EA907444EB01046D1944EB0F
:101900000404521BA3414FF0000348BF0A3200D524
:1019100030BD401C41F1000130BD00001FB584B056
:1019200000200A9C06AB04AA02A90094AFF3008031
:1019300018B1DDE9020108B010BD0348204000F0F5
:10194000F2F800200146F6E70000207C2DE9F04186
:101950001F46044603260168072A01F4006004DBE1
:1019600008B116A505E016A503E008B115A500E02D
:1019700015A521F010002060A069C01EA0610FB164
:10198000401EA0612046AFF300804FB1D4E9012191
:1019900038469047206A401C2062C01C206206E046
:1019A000206AFAE7D4E9012115F8010B9047761E69
:1019B000F8D22046AFF30080BDE8F0814E414E00E2
:1019C0006E616E00494E4600696E66002DE9F04773
:1019D000814616468AB0354878440DC88DE80D001A
:1019E00032487844801C03AC0DC884E80D0041F6F1
:1019F0009B300844372190FBF1F290FBF1F5A5F103
:101A0000800501FB12041B3C02D56442012000E06A
:101A10000020DFF898A080460027FA44AAF1BE0A09
:101A20000EE0E0070AD03246684607EB4701012383
:101A30000AEB810100F0F4FB8DE8070064107F1CC5
:101A4000002CEED1194F7F44AE3F19E0E80715D0C6
:101A500007EB04100DF1180A90E80E008AE80E005A
:101A6000C068F04201D1981908903246012306A9B6
:101A700003A800F0D5FB03AB83E807006D10641CDE
:101A8000002DE3D14FF0010332466946B8F1000F53
:101A900003A802D000F0AFFB01E000F0C1FBC9E9F0
:101AA0000001C9F808200AB0BDE8F087244E010003
:101AB00010B500F03FF8BDE8104000F02FB87047B7
:101AC0007546FFF7BFFEAE4605006946534620F057
:101AD0000700854618B020B5FEF744FCBDE820405D
:101AE0004FF000064FF000074FF000084FF0000BDA
:101AF00021F00701AC46ACE8C009ACE8C009ACE88D
:101B0000C009ACE8C0098D46704710B50446AFF374
:101B100000802046BDE81040FEF7B0BB002801D091
:101B200000F070B8704710B500F08CF8BDE81040B8
:101B3000FFF7F4BF10B5012805D0002103A000F085
:101B400067F8012010BD09A1F8E70000534947528A
:101B5000544D454D3A204F7574206F66206865617D
:101B600070206D656D6F7279000000003A20486545
:101B70006170206D656D6F727920636F7272757020
:101B8000746564004FF0013C50F8042B51F8043B9D
:101B90009A4221D1A2EB0C03934313EACC1317D141
:101BA00050F8042B51F8043B9A4215D1A2EB0C03D8
:101BB000934313EACC130BD150F8042B51F8043B98
:101BC0009A4209D1A2EB0C03934313EACC13DBD066
:101BD0004FF00000704700BFD01A01BAB1FA81F18E
:101BE00001F0180122FA01F0CB40C1F12001DBB273
:101BF000C0B2C01A2CFA01F3D11A914311EAC311F1
:101C0000E6D1704701491820ABBEFEE7260002006E
:101C100070B505460C460A2000E06D1C00F068F81F
:101C200035B128780028F8D102E0641C00F060F893
:101C300014B120780028F8D1BDE870400A2000F0E7
:101C400057B8000010B5022803D0410103D50DA1FB
:101C500012E0002010BD010101D50FA10CE0C10070
:101C600001D511A108E0810001D512A104E04000D6
:101C700001D513A100E0002115A0FFF7C9FF012045
:101C800010BD0000496E76616C6964204F7065720A
:101C90006174696F6E000000446976696465204272
:101CA00079205A65726F00004F766572666C6F77A7
:101CB00000000000556E646572666C6F770000006E
:101CC000496E657861637420526573756C740000A9
:101CD0005349474650453A2041726974686D6574AE
:101CE000696320657863657074696F6E3A200000DF
:101CF00008B569468DF800000320ABBE08BD5FEA59
:101D0000400C08BF91F0000F4FEA8C234FEAC1222C
:101D100043EA51514FEA1C5018BF00F5F0404FEA1A
:101D2000300018BF41F000415FEA6C5C00F0298090
:101D3000BCF1FF3F08BF40F080407047130C06BF66
:101D400012044FF0100C4FF0000C130E04BF1202DF
:101D50000CF1080C130F04BF12010CF1040C930FCB
:101D600004BF92000CF1020CD30F04BF52000CF11F
:101D7000010C11464FF00002A0F11F00A0EB0C0077
:101D8000704711F0004F08BF704731F000413FF439
:101D9000D5AF0B0C06BF09044FF0100C4FF0000C30
:101DA0000B0E04BF09020CF1080C0B0F04BF090154
:101DB0000CF1040C8B0F04BF89000CF1020CCB0F4B
:101DC00004BF49000CF1010CCCF12003A0EB0C0086
:101DD00022FA03F302FA0CF241EA030100F10100D6
:101DE000704720F07F4C80EA030023F07F47ACEB84
:101DF000070303F57C5300F0004003F1FF032DE9D6
:101E000080494FEA154B09B44FEA144325EA0B4EBB
:101E100024EA03480FF2042606EB132749083E780C
:101E20005FEA320203FB0667C7F5000707FB06F609
:101E30004FEA54374FEAD64606F1020607FB066C16
:101E4000CCF1005C4FEA1C472CEA074C07FB06F478
:101E50000CFB06F504EB15464FEA961634BF00203E
:101E60004FF000404FEAD13706FB07FC4FEA1C4C0D
:101E70000CFB0BF7D21B03FB0CF761EB07010CFB10
:101E80000EF7B0EB074072EB17420CFB08F734BFBC
:101E9000A2EB0742B2EB074261EB17414FEA0C4459
:101EA0004FEA910706FB07FC4FEA1C4C0CFB0BF7B3
:101EB000B0EBC74072EB573203FB0CF734BFA2EB19
:101EC000C742B2EBC74261EB57310CFB0EF7B0EBE8
:101ED000C70072EB57720CFB08F734BFA2EBC702C6
:101EE000B2EBC70261EB5771039F4FEA816141EA90
:101EF000921104EBCC044FEAD1374FEA826206FB21
:101F000007FC42EA90124FEA80604FEA1C4C0CFB3F
:101F10000BF7D21B03FB0CF761EB07010CFB0EF771
:101F2000B0EB074072EB17420CFB08F734BFA2EB93
:101F30000742B2EB074261EB17414FEA8C554FEA7B
:101F4000910704EB9C2406FB07FC4FEA1C4C0CFB9E
:101F50000BF7B0EBC74072EB573203FB0CF734BF03
:101F6000A2EBC742B2EBC74261EB57310CFB0EF755
:101F7000B0EBC70072EB57720CFB08F734BFA2EB53
:101F8000C702B2EBC70261EB577115EB4C254FEA64
:101F9000816141EA92114FEA82624FEAD13742EA07
:101FA000901206FB07FC44F100044FEA80604FEA00
:101FB0001C4C0CFB0BF7D21B03FB0CF761EB07016E
:101FC0000CFB0EF7B0EB074072EB17420CFB08F767
:101FD00034BFA2EB0742B2EB074261EB174115EBAE
:101FE0001C154FEA813141EA92414FEA823242EABE
:101FF00090424FEA80304FEA0C7644F1000448EA00
:1020000003434EEA0B484FF0000EB2EB080C71EBA5
:10201000030724BF624639464EEB0E0E4FF0000B0D
:102020000018524149414BEB0B0BB2EB080C71EB22
:1020300003077BF1000B24BF624639464EEB0E0EC0
:102040004FF0000B0018524149414BEB0B0BB2EB28
:10205000080C71EB03077BF1000B24BF6246394685
:102060004EEB0E0E51EA020718BF46F0010616EBC2
:102070000E7655F1000254F1000103D5BDE8890147
:10208000BDE80088BDE88901BDE80048B6195241A5
:1020900041EB0101A3F10103704780807F7E7D7CCD
:1020A0007B7A7978777676757473727171706F6EEA
:1020B0006E6D6C6C6B6A6A69686867666665646495
:1020C000636362616160605F5F5E5E5D5D5C5C5B1F
:1020D0005B5A5A595958585757565655555554548E
:1020E000535352525251515050504F4F4F4E4E4DEC
:1020F0004D4D4C4C4C4B4B4B4A4A4A494949484838
:102100004847474747464646454545444444444377
:1021100043434342424242414141002B9C4630D41A
:1021200077002BD01CB54FEA370703B44FF01000EF
:102130004FF01001BAF1000F06D0BCF1000FDCBF68
:1021400040F0080040F0080113F046FA0FBCBDE86B
:1021500010400BF1010BBBF1010F08BF5FEA17073D
:1021600022BF12F1010211F101014FF0004143F1D0
:10217000000300F0004043EA00007047F9D357081D
:10218000D0E746EA064613F1400F4FEA16461FDD38
:1021900013F1200FDFBF16430A46002120335B42B4
:1021A000BED0C3F1200746EA064602FA07F74FEA17
:1021B000164646EA0706C3F1200722FA03F201FA9F
:1021C00007F721FA03F14FF0000342EA0702A7E7FD
:1021D00046EA020646EA06464FEA164646EA01067F
:1021E000BCBF46EA0646360C4FF000034FF0000233
:1021F0004FF0000194E72DE9804C9A46934670B465
:1022000091E8380007C831EA400C48BF34EA430C73
:1022100003D5FFF7E6FDFFF780FFF0BCBDE8008CBB
:102220002DE9804C9A46934670B491E8380007C86F
:1022300010F0804F08BF13F0804F03D100F005F875
:10224000FFF76BFFF0BCBDE8008C20F07F4780EA11
:10225000030023F07F4C07EB0C03A3F57C5300F045
:102260000040A3F1FE0392F0000F00F0B38095F060
:10227000000F00F077802DE901494FEA11404FEA45
:10228000144621EA004800FB06FC24EA064708FB46
:1022900006F607FB08F800FB07F718EB06484CEBBF
:1022A000164C4FEA124B18EB07484FEA15464CEB19
:1022B000174022EA0B4E0BFB06FC25EA06470EFBF5
:1022C00006F607FB0EFE0BFB07F71EEB064E4CEB6C
:1022D000164C4FF000061EEB074E4CEB174B18EB5D
:1022E0000B0840F1000018EB0E0B58EB000840F112
:1022F00000008F1A4FF000013CBFC943661B14BF9A
:10230000B5EB040C00213CBFC943F61B4FEA174450
:102310004EEA8E0E27EA04454FEA1C4704FB07628B
:102320002CEA074C05FB07F70CFB05F604FB0CFC3D
:1023300016EB074642EB174216EB0C4642EB1C42EB
:102340001BEB060658EB0202414146EA9E0601D508
:10235000BDE80189B619524141EB0101A3F1010326
:10236000BDE801894FEA14454FEA114724EA0546C2
:1023700021EA074C05FB07F406FB07F70CFB06F107
:1023800005FB0CFC11EB074144EB17444FEA1247E5
:1023900011EB0C4144EB1C4422EA074C05FB07F20D
:1023A00006FB07F70CFB06F605FB0CFC16EB0746D5
:1023B00042EB174216EB0C4642EB1C456A1854F1EF
:1023C000000148BF7047B619524141EB0101A3F12A
:1023D0000103704795F0000F37D04FEA11424FEAE2
:1023E000144721EA024624EA074C02FB07F106FBE8
:1023F00007F70CFB06F402FB0CFC14EB074441EB63
:1024000017414FEA154714EB0C4441EB1C4125EAF8
:10241000074C02FB07F506FB07F70CFB06F602FB71
:102420000CFC16EB074645EB174516EB0C4645EB47
:102430001C42121951F1000148BF7047B6195241B0
:1024400041EB0101A3F1010370474FEA14454FEA44
:10245000114724EA054621EA074C05FB07F106FB74
:1024600007F70CFB06F24FF0000605FB0CFC12EB25
:10247000074241EB174112EB0C4251EB1C4148BFA4
:102480007047921841EB0101A3F10103704700006E
:102490004A494A6822F440324A604A6843681A430B
:1024A0004A6001684A6822F480724A6001684A689A
:1024B000036942EA03224A6001684A6822F04072D6
:1024C0004A6001684A6883681A434A6001688A68FA
:1024D00022F400628A6001688A68C3681A438A60CD
:1024E000816A6FF07062D14214D001688A6822F06C
:1024F00070628A6001688A68836A1A438A60016828
:102500008A6822F040528A6001688A68C36A1A4366
:102510008A6009E001688A6822F070628A60016856
:102520008A6822F040528A6001688A6822F00202BA
:102530008A6001688A68037E42EA43028A6090F8F2
:10254000201089B101684A6842F400624A6001685B
:102550004A6822F460424A6001684A68436A5B1E26
:1025600042EA43324A6004E001684A6822F40062A9
:102570004A600168CA6A22F47002CA620168CA6AC3
:10258000838B5B1E42EA0352CA6201688A6822F4A6
:1025900000728A6001688A6890F8303042EA43220B
:1025A0008A6001688A6822F480628A6001688A68A9
:1025B000406942EA802088607047000000230140A3
:1025C00010B501221021024802F096FE10BD000055
:1025D0000000024010B500221021024802F08CFEDB
:1025E00010BD00000000024010B501221146024853
:1025F00002F082FE10BD00000004024010B500226F
:102600000121024802F078FE10BD000000040240E3
:1026100010B50446FFF7DEFF922000F0A5F9062270
:102620009549122000F080F9FFF7CAFF92484078E0
:10263000000200B290490978084390490880084692
:10264000B0F9000000EE100AB8EEC00A8C48D0EDD8
:10265000000A20EE200AD4ED080A20EE200A84EDBC
:10266000000A8548C078000200B28349897808438F
:10267000824908800846B0F9000000EE100AB8EE62
:10268000C00A7F48D0ED000A20EE200AD4ED080AE7
:1026900020EE200A84ED010A77484079000200B25A
:1026A000754909790843754908800846B0F9000062
:1026B00000EE100AB8EEC00A7148D0ED000A20EE14
:1026C000200AD4ED080A20EE200A84ED020AFFF762
:1026D00095FF08226849002000F026F9FFF784FFE3
:1026E000654800780F284FD166480078F0B36248FB
:1026F000C078000200B26049897808435F490880C9
:1027000094ED090A0846B0F9000000EE900AF8EED0
:10271000E00A5D4890ED001A10EE810A84ED030A8C
:1027200055484079000200B253490979084353499A
:10273000088094ED0A0A0846B0F9000000EE900AFD
:10274000F8EEE00A504890ED001A10EE810A84ED90
:10275000040A4948C079000200B247498979084310
:102760004649088094ED0B0A084600E00DE0B0F9F8
:10277000000000EE900AF8EEE00A434890ED001ADF
:1027800010EE810A84ED050A44E03B48C07800025F
:1027900000B2394989780843384908800846B0F9B9
:1027A000000000EE100AB8EEC00A3748D0ED000A6B
:1027B00020EE200A84ED030A2F484079000200B27F
:1027C0002D49097908432D4908800846B0F90000D1
:1027D00000EE100AB8EEC00A2B48D0ED000A20EE39
:1027E000200A84ED040A2448C079000200B222497C
:1027F00089790843214908800846B0F9000000EEB5
:10280000100AB8EEC00A2048D0ED000A20EE200AD7
:1028100084ED050AFFF7DEFEA22000F0A5F80222F3
:102820001549222000F080F8FFF7CAFE1248007810
:10283000C0001149497840EA6110104908800846F3
:10284000B0F90000B0F5806F05DB08460088A0F500
:10285000006000B208800948B0F9000000EE100ADC
:10286000F8EEC00AB4EE001AB3EE070A00EE810AD1
:1028700084ED070A10BD00008A02002092020020A9
:102880004C0200205C0200205002002070B504467B
:102890000D461C48046000201B4908700DF08CFC9C
:1028A000194909780843184908700DF03BFD16498D
:1028B00009780843144908701DB1144800F046FC1B
:1028C0001CE09FED130A114880ED090A9FED110AE3
:1028D00080ED0A0A9FED100A80ED0B0A9FED0F0AAA
:1028E00080ED0C0A90ED0C0ADFED0D0A80EE801AE7
:1028F00080ED081A9FED0B0A80ED060A0248007869
:1029000070BD00009402002056020020F047002015
:102910007CF61BBA7C328CBB0905503B932F1A41C5
:10292000C3F51C410000204270B506460C46154612
:1029300046F0800000F018F806E0552000F014F88A
:102940002070641C681EC5B2002DF6D170BD70B534
:1029500004460D4644F0800000F006F8552000F0D3
:1029600003F8287070BD000001B582B04FF47A7092
:10297000012301AA02A900900348006804F030FA7C
:102980009DF804000EBD00009402002070B50546BD
:102990000C462846FFF7E8FF2046FFF7E5FF70BD2D
:1029A000D2ED020A92ED021AB6EE000A00EEC10A5A
:1029B000D2ED030A92ED031A00EEC10AD0ED000A2F
:1029C00020EE200AD2ED010A92ED021A60EE810A91
:1029D00092ED001AD2ED031A41EE610A90ED011A50
:1029E00000EE810AD2ED010A92ED031A60EE810A2F
:1029F00092ED001AD2ED021A41EE210A90ED021A70
:102A000000EE810AF0EE000A20EE200A81ED000AB5
:102A100092ED010AD2ED020A20EE200AD2ED000A60
:102A200092ED031A00EE810AD0ED000A60EE200A52
:102A300092ED011AD2ED011AB6EE000A01EE610A1A
:102A4000D2ED031A92ED032AB0EE401A01EEC21A3B
:102A5000D0ED011AB0EE600A01EE210AD2ED020AB1
:102A600092ED031A60EE810A92ED001AD2ED011A7E
:102A700041EE610A90ED021A00EE810AF0EE000AC2
:102A800020EE200A81ED010A92ED010AD2ED030A3F
:102A900020EE200AD2ED000A92ED021A00EEC10AE1
:102AA000D0ED000A20EE200AD2ED020A92ED031AC0
:102AB00060EE810A92ED001AD2ED011A41EE210A70
:102AC00090ED011A00EE810A92ED011AD2ED011A81
:102AD000F6EE000A41EE610A92ED021AD2ED021AF8
:102AE00041EE610A90ED021A00EE810AF0EE000A52
:102AF00020EE200A81ED020A704700BFFEE70000C9
:102B000010B5024801F0F9FC10BD0000C40E002011
:102B100010B5024801F0F1FC10BD0000EC0E0020E1
:102B200038B504464FF404700849086000208860F6
:102B3000C86008200861200A054908704C706B467F
:102B40000A460249034801F00BFB38BDDC32002085
:102B500028010020EC0E0020F8B507460C4615466B
:102B60001E464FF400700D49086000208860C86060
:102B700008200861380A0A4908704F70200A8870D6
:102B8000CC70280A08714D71300A8871CE716B467D
:102B90000A460249034801F0E3FAF8BD94320020E6
:102BA00010010020EC0E002038B504464FF4C4603C
:102BB0000F49086000208860C860082008612078FC
:102BC0000C49087060784870A0788870E078C87008
:102BD0002079087160794871A0798871E079C871AD
:102BE0006B460A460249044801F0BAFA38BD0000B3
:102BF000F432002055010020C40E00200346042BAF
:102C000015D007DC7BB1012B0ED0022B0DD0032B8E
:102C100012D10BE0202B0BD0212B0AD0222B09D074
:102C2000232B09D107E008E007E006E005E004E017
:102C300003E002E001E000E000BF00BF00207047B9
:102C40000020704710B50022044905480BF0EDFA4A
:102C5000044903480BF0E3FA002010BDD4260020FD
:102C600030160020D41E002070B504460D462046C4
:102C700029680FF0E9FE214603480BF0D0FA02481C
:102C80000BF0ACFA002070BD3016002070B52DEDB1
:102C9000108B88B00446FE480078401CFC49087040
:102CA0001E269FEDFC0A8DED070A9FEDFB0AF0EE54
:102CB000409A9FEDFA0AB0EE408A9FEDF90AB0EE15
:102CC00040AA9FEDF80AF0EE40AA9FEDF20A84EDCB
:102CD000B20A9FEDF00A84EDB10AD4F8EC02008943
:102CE00000EE900AF8EE600AB0EE600AF2EE040A16
:102CF00004F50F7008F0E0FAD4F8E802408978286B
:102D000001DD782602E0D4F8E8024689D4ED970A7E
:102D100000EE106AB8EE400A30EE600A8DED070A48
:102D20009DED070ABCEEC00A10EE100A81B24FF406
:102D30002C700153005B43F2C821884202DD4FF43E
:102D40002C700153D248007832280ADD4FF42C71E0
:102D5000095B6422514308B2FFF7E2FE0020CC4930
:102D60000870D4F8DC02B0F9020010280EDDCE485D
:102D7000007820B19FEDCD0A84EDB20A0EE000EE9E
:102D8000106AB8EE400A84EDB20A07E0A6F10F001F
:102D900000EE100AB8EEC00A84EDB20A002076E018
:102DA00000EB800204F1140101EB8201B1F9101073
:102DB00000EE101AB8EEC00A60EE290A00EB80029D
:102DC00004F1140151F82210B1F9021000EE101AAA
:102DD000B8EEC00A20EE800A00EB800204F1140174
:102DE00051F82210B1F9021000EE901AF8EEE00A44
:102DF00020EE8A1A00EB800204F1140151F822102F
:102E0000B1F9021000EE901AF8EEE00A01EE200A85
:102E100000EB800204F1140101EB8201B1F9101002
:102E200000EE901AF8EEE00A20EE881A00EB80021D
:102E300004F1140101EB8201B1F9101000EE901AB7
:102E4000F8EEE00A01EE200A30EE2A0A04F52D71B0
:102E500001EB800181ED000A04F52D7101EB800189
:102E600091ED000AB5EEC00AF1EE10FA00D20CE0C6
:102E700094EDB10A04F52D7101EB8001D1ED000A4A
:102E800030EE200A84EDB10A00BF411CC8B204280C
:102E900086DB94EDB10AD4EDB20AB4EEE00AF1EEAD
:102EA00010FA7DDD94EDB20AD4EDB10A80EE201A5D
:102EB0008DED021A00253EE104F52D7000EB850032
:102EC000D0ED000A9DED020A20EE800A03A800EB77
:102ED000850080ED000A03A800EB850090ED000A54
:102EE000B5EEC00AF1EE10FA00D222E105EB850141
:102EF00004F1140050F82100B0F9020000EE100AAD
:102F0000B8EEC00A60EE298A03A800EB850090EDB8
:102F1000000A05EB850104F1140050F82100B0F916
:102F2000020000EE900AF8EEE00A20EE8A1A05EBA5
:102F3000850104F1140050F82100B0F9020000EE00
:102F4000900AF8EEE00A11EE200A30EE2A9A05EB1C
:102F5000850104F1140000EB8100B0F91000002895
:102F60006CDDB0EE000A28EE000A10EE101A0846DA
:102F700012F0D4F941EC1E0B28EEA80AF1EE000A7B
:102F800068EE200A00EEC90A10EE101A084612F088
:102F9000C5F941EC1D0BB0EE4D0AF0EE6D0A00E0F4
:102FA000CDE00DF05BF8B0EE40BAF0EE60BAB1EEF5
:102FB000680A10EE100A12F0B1F941EC1C0B53EC48
:102FC0001B2B11F0F5F941EC1F0B53EC1E2B11F0EC
:102FD00015FBCDE900019DED000B51EC100B11F03C
:102FE00085F8014604F5337040F8251000EB8500A4
:102FF000D0ED000A9FED2E0AF4EEC00AF1EE10FAB1
:1030000009DD4FF47A5105EB850204F1140000EB61
:10301000820001828CE004F5337000EB850090EDB6
:10302000000ABDEEC00A10EE100A01B205EB8502DF
:1030300004F1140000EB8200018279E0B0EE000A96
:1030400028EE000A10EE101A084612F067F941EC5B
:103050001B0B28EEA80AF1EE000A68EE200A00EE2B
:10306000C90A10EE101A084612F058F941EC1D0B6F
:10307000B0EE4D0AF0EE6D0A0CF0F0FF8DED000B96
:10308000B1EE680A10EE100A12F048F912E00000E2
:1030900071010020000000004F020636FC110434CC
:1030A000C3031C348D978240690100200000164341
:1030B00000007A4641EC1C0B9DED000B53EC102BED
:1030C00011F02AFE41EC1E0B53EC1B2B11F096FA6B
:1030D00041EC1F0B11F00AF8014604F5337040F87B
:1030E000251000EB850090ED000ADFED170AB4EE25
:1030F000E00AF1EE10FA09D24CF2801105EB8502DC
:1031000004F1140000EB8200018211E004F5337039
:1031100000EB850090ED000ABDEEC00A10EE100A2B
:1031200001B205EB850204F1140000EB820001827C
:1031300000BF681CC5B2042DFFF6BEAE00BF08B0CC
:10314000BDEC108B70BD000000007AC670B52DED8F
:10315000048B88B0044600200690079000F0E2FC43
:10316000FE4880ED000A00BF00F0DCFCFB48D0ED1B
:10317000000A30EE600AF2EE040AB4EEE00AF1EE64
:1031800010FA14DD9FEDF60A84ED090A9FEDF50AA9
:1031900084ED0A0A9FEDF40A84ED0B0A9FEDF30A11
:1031A00084ED0C0A9FEDF20A84ED060A57E29FEDCA
:1031B000F10A00F073FC9FEDF00A84ED0C0A9FED1C
:1031C000EE0A84ED090A9FEDEC0A84ED0A0A9FEDF0
:1031D000EA0A84ED0B0A002673E1FFF7FBF992205F
:1031E000FFF7C2FB062206A91220FFF79DFBFFF79F
:1031F000E7F99DF81900000200B29DF8181040EAA6
:10320000010500EE105AB8EEC00ADC48D0ED000A05
:1032100020EE200A84ED000A9DF81B00000200B297
:103220009DF81A1040EA010500EE105AB8EEC00AE7
:10323000D248D0ED000A20EE200A84ED010A9DF864
:103240001D00000200B29DF81C1040EA010500EECE
:10325000105AB8EEC00AC948D0ED000A20EE200A84
:1032600084ED020AD4ED000A60EEA00A94ED011A82
:10327000D4ED011A41EE210A94ED021AD4ED021A9E
:1032800041EE210AB0EE600A0CF025FFB0EE408A54
:1032900094ED0C0A30EE080A84ED0C0AFFF7AEF943
:1032A000082206A90020FFF73FFBFFF79DF99DF8D4
:1032B00018000F2850D19DF81B00000200B29DF8A5
:1032C0001A1040EA010500EE105AB8EEC00AAC48E8
:1032D000D0ED000A20EE200A84ED030A94ED090ADD
:1032E000D4ED030A30EE200A84ED090A9DF81D0092
:1032F000000200B29DF81C1040EA010500EE105AD1
:10330000B8EEC00A9E48D0ED000A20EE200A84EDF7
:10331000040A94ED0A0AD4ED040A30EE200A84ED82
:103320000A0A9DF81F00000200B29DF81E1040EA34
:10333000010500EE105AB8EEC00A9148D0ED000A1F
:1033400020EE200A84ED050A94ED0B0AD4ED050A5F
:1033500030EE200A84ED0B0A06BBF0EE488AB0EE90
:10336000489A002017E004F10C0101EB800191ED77
:10337000000A03A901EB800181ED000A04F10C01B0
:1033800001EB800191ED000A694601EB800181EDBE
:10339000000A411CC8B20328E5DB49E0B4EEE88A24
:1033A000F1EE10FA01DDF0EE488AB4EEC98AF1EED2
:1033B00010FA01D2B0EE489A002037E004F10C0177
:1033C00001EB800191ED000A03A901EB8001D1ED31
:1033D000000AB4EEE00AF1EE10FA0ADD04F10C0185
:1033E00001EB800191ED000A03A901EB800181ED61
:1033F000000A04F10C0101EB800191ED000A69461D
:1034000001EB8001D1ED000AB4EEE00AF1EE10FA12
:103410000AD204F10C0101EB800191ED000A69462A
:1034200001EB800181ED000A411CC8B20328C5DB15
:1034300038EEC90A534880ED000A002012E003A9C3
:1034400001EB800191ED000A694601EB8001D1EDAD
:10345000000A30EE600A4C4901EB800181ED000A60
:10346000411CC8B20328EADB464890ED000AF6EE9C
:10347000000AB4EEE00AF1EE10FA1BDC424890EDCF
:10348000000ADFED420AB4EEE00AF1EE10FA11DCB8
:1034900090ED010ADFED3D0AB4EEE00AF1EE10FA1C
:1034A00008DC90ED020ADFED390AB4EEE00AF1EE35
:1034B00010FA00DD0AE09FED360A00F0EFFA701C0A
:1034C00086B2344800888642FFF687AE00BFD4ED4E
:1034D0000C0A3048008800EE100AB8EE400A80EE70
:1034E000801A84ED0C1A002015E004F1240101EB90
:1034F0008001D1ED000A2749098800EE101AB8EEC4
:10350000400A80EE801A04F1240101EB800181ED74
:10351000001A411CC8B20328E7DBFFF75BF8A220C2
:10352000FFF722FA022206A92220FFF7FDF9FFF792
:1035300047F89DF81800C0009DF8191040EA611581
:10354000B5F5806F02DBA5F5006005B200EE105AFC
:10355000F8EEC00AB4EE001A1EE00000840200205B
:103560007CF61BBA7C328CBB0905503B932F1A4169
:10357000000020420AD7A33B000000004C020020BC
:103580005002002058020020E44700209A99193E7A
:103590006F12033A88020020B3EE070A00EE810A98
:1035A00084ED060A34480088401C00B23249088085
:1035B000324890ED000AF6EE000AB4EEE00AF1EEB1
:1035C00010FA3FF7D1AD94ED0C0ADFED2D0A30EE85
:1035D000600AB0EEC00AF6EE000AB4EEE00AF1EEC0
:1035E00010FAEEDC274890ED000A5FED180AB4EE01
:1035F000E00AF1EE10FAE4DC90ED010A5FED1D0A3D
:10360000B4EEE00AF1EE10FADBDC90ED020A5FEDB9
:10361000210AB4EEE00AF1EE10FAD2DC94ED090AC8
:10362000B0EEC00ADFED180AB4EEE00AF1EE10FACF
:10363000C7DC94ED0A0AB0EEC00ADFED130AB4EE5F
:10364000E00AF1EE10FABCDC94ED0B0AB0EEC00A11
:10365000DFED0D0AB4EEE00AF1EE10FAB1DC00BFC6
:1036600094ED0C0ADFED090A80EE801A84ED081A49
:1036700008B0BDEC048B70BD5E0200205802002033
:10368000CDCC1C41E44700200AD7233CC3F51C41A4
:103690002DE9F04FDDE90DC8DDF83C90DDE90B4781
:1036A000DDE909564FF0000A07E011F80AB0CAF147
:1036B000020E00F80EB00AF1010ABAF1030F04DAA3
:1036C00011F80AB0BBF1000FEFD190F803B02BF066
:1036D000380B0BF1380B80F803B090F803B062F3AD
:1036E000020B80F803B0B0F803B063F3891BA0F8B5
:1036F00003B090F804B065F3850B80F804B0B0F81F
:1037000007B067F3090BA0F807B0B0F808B06CF386
:103710008C0BA0F808B0B0F809B068F34F1BA0F804
:1037200009B0B0F804B066F38E1BA0F804B0B0F88E
:1037300005B064F3CF1BA0F805B04FF0000A09E014
:1037400099F800B000F10F0E0EF80AB009F1010966
:103750000AF1010AA245F3D3BDE8F08F0FB430B5EA
:1037600091B04FF6FF700490302214A905A8FDF720
:1037700059FD02ADA5208DF808003320ADF80900F1
:103780005D4800788DF80B00FF220421284600F0E8
:103790006DFB8DF80C0040F20130ADF80D004FF4D8
:1037A0008870ADF800000EF0DDF8ADF802000EF004
:1037B000D9F865282ED007DC072849D2DFE800F0C9
:1037C000480C11161B2025006638052840D2DFE87A
:1037D00000F0262B30353A0040F20110ADF804001D
:1037E0003EE04FF48170ADF8040039E040F2031080
:1037F000ADF8040034E04FF48270ADF804002FE01F
:1038000040F20510ADF804002AE04FF48370ADF8E3
:10381000040025E040F26510ADF8040020E04FF40C
:10382000B370ADF804001BE040F26710ADF804007F
:1038300016E04FF4B470ADF8040011E040F26910E6
:10384000ADF804000CE04FF4B570ADF8040007E0EB
:1038500040F26510ADF804006520ADF8020000BF2D
:1038600000BF02ADBDF810200721284600F0E4FAA1
:1038700004906D46BDF810200621284600F0DCFAC1
:10388000049005ADBDF810202D21284600F0D4FA93
:10389000049002AD002404E0287808F001FD6D1CBE
:1038A000641C072CF8D36D46002404E0287808F047
:1038B000F7FC6D1C641C062CF8D305AD002404E055
:1038C000287808F0EDFC6D1C641C2D2CF8D304AD99
:1038D000002404E0287808F0E3FC6D1C641C022C32
:1038E000F8D305480078401C03490870002011B047
:1038F00030BC5DF814FB0000260200201B48406825
:1039000000F0006080B31A48406B00681949884293
:1039100005D94FF0006017494C3908601CE0144885
:10392000406B00681149B831884205D94FF00060FA
:103930001049503908600FE00D48406B00680B4992
:103940005831884204D94FF000600849C86003E04C
:103950004FF000600549886005480068006840F441
:103960000070034909680860704700000060024069
:10397000680F00205864024010B5024801F020FA98
:1039800010BD00007015002010B5024801F018FAB3
:1039900010BD0000B014002010B5024801F010FA6C
:1039A00010BD0000D015002010B5024801F008FA43
:1039B00010BD00005014002001680A4BCAB2103A32
:1039C000A3FB02321209084B9B5CC365032A04D98E
:1039D0006FF30901091D816502E06FF3090181653B
:1039E000806D7047ABAAAAAA645F01080146002057
:1039F0008A6A8B69002B0FD0B3F5005F1DD08AB3A4
:103A0000012A30D0022A2ED0032A04D1C96A11F02B
:103A1000807F00D0012070471AB1012A07D0022A06
:103A2000F9D1C96A11F0807FF5D001207047C96AC9
:103A3000B1F1C07FFAD1012070475AB1012A0BD0F1
:103A4000022A07D0032AF7D1C96AB1F1C07FF3D1A6
:103A50000120704701207047C96A11F0807FFAD0B9
:103A600001207047FFE701207047000008B50848B3
:103A700040680090074900980968884204D20648C7
:103A80000068401C0449086002490098086008BDAD
:103A9000001000E0D0000020CC0000200C49486855
:103AA000F0EE400A00BF0A494968091A01EE101AEF
:103AB000F8EE411A074991ED001AB8EE411A20EECE
:103AC000811AF4EEC11AF1EE10FAECD3704700003F
:103AD000001000E0C000002010B52DED028B82B078
:103AE00004460E484068019020680199081A00EECB
:103AF000100AF8EE400A0A4890ED000AB8EE400AB3
:103B000080EE801AB0EE418A01982060FFF7AEFF88
:103B1000B0EE480A02B0BDEC028B10BD001000E010
:103B2000C000002010B52DED028B00F059F80F48B1
:103B300090ED000AB8EE400A808800EE900AF8EE98
:103B4000600A9FED0B1A00EE810A0848C08800EE5B
:103B5000900AF8EE600A9FED071A00EE810AB0EEB7
:103B6000408AB0EE480ABDEC028B10BDB8000020C0
:103B70006F12833ABD3786351249096841F080716A
:103B8000104A11600021104A51601146096841F045
:103B9000010111600D4941430D4A11601146096848
:103BA0004FF47A72B1FBF2F10A4A116008490968D0
:103BB000064AB1FBF2F1084A11600021074A116080
:103BC00070470000FCED00E0001000E040420F00F4
:103BD000C0000020C4000020C8000020CC0000204D
:103BE00038B5294840680090FFF740FF2748006833
:103BF0004FF0FF31A0FB01310098181841F100018E
:103C0000234A03C2234800232149026803C9FDF760
:103C100053F9214A03C220480CC81E4800680024FA
:103C2000A2FB001503FB005002FB04021848D0E978
:103C30000030591A60EB0200184AC2E90010164819
:103C4000006817490860174800231449026803C92F
:103C5000FDF732F9124988800846808811490968C1
:103C600041430E48D0E90030591A60F100000E4A75
:103C7000C2E900100D4800230B49026803C9FDF793
:103C80001BF90749C88038BD001000E0CC000020B7
:103C9000D8000020C0000020E0000020E800002044
:103CA000B8000020C4000020F0000020C800002060
:103CB000704710B5012001F005FA10BD10B50820BD
:103CC00001F000FA10BD10B5102001F0FBF910BD95
:103CD00010B5202001F0F6F910BDD2ED020A92EDE8
:103CE000021AB6EE000A00EEC10AD2ED030A92ED06
:103CF000031A00EEC10AD0ED000A20EE200AD2ED30
:103D0000010A92ED021A60EE810A92ED001AD2EDDC
:103D1000031A41EE210A90ED011A00EE810AD2ED5C
:103D2000010A92ED031A60EE810A92ED001AD2EDBB
:103D3000021A41EE610A90ED021A00EE810AF0EEDD
:103D4000000A20EE200A81ED000A92ED010AD2ED70
:103D5000020A20EE200AD2ED000A92ED031A00EECC
:103D6000C10AD0ED000A60EE200A92ED011AD2EDF0
:103D7000011AB6EE000A01EE610AD2ED031A92EDC5
:103D8000032AB0EE401A01EEC21AD0ED011AB0EECD
:103D9000600A01EE210AD2ED020A92ED031A60EEEA
:103DA000810A92ED001AD2ED011A41EE210A90ED3E
:103DB000021A00EE810AF0EE000A20EE200A81EDE0
:103DC000010A92ED010AD2ED030A20EE200AD2ED9B
:103DD000000A92ED021A00EE810AD0ED000A20EEF0
:103DE000200AD2ED020A92ED031A60EE810A92EDEA
:103DF000001AD2ED011A41EE610A90ED011A00EEAF
:103E0000810A92ED011AD2ED011AF6EE000A41EE96
:103E1000610A92ED021AD2ED021A41EE610A90EDAA
:103E2000021A00EE810AF0EE000A20EE200A81ED6F
:103E3000020A70477047000030B5034613B94FF6C9
:103E4000FF7030BD09E013F8014B82EA0400C0B2F4
:103E5000054D35F8100080EA2222081EA1F101016B
:103E6000F1D11046EDE70000D259010830B5034604
:103E700005E013F8010B80EA02040448025D081E05
:103E8000A1F10101F5D1104630BD0000D158010863
:103E900070B50A480468001D0568001D06683444B2
:103EA00054B108220649204605F04CFB042204497F
:103EB0001031284605F046FB70BD0000107AFF1F48
:103EC0007A00002038B44FF0000CCDF800C090F814
:103ED0003C20012A1BD0012280F83C200A680724DC
:103EE000092A17D90368DD680A3A02EB420204FA8C
:103EF00002F225EA0202DA600A788B680A3A02EBDB
:103F0000420293400268D4682343D36014E038BC73
:103F10000220704703681D6902EB420204FA02F2B4
:103F200025EA02021A610A788B6802EB420293408A
:103F300002681469234313614A681F24072A15D2B3
:103F400003685D6B521E02EB820204FA02F225EA5C
:103F500002025A630A8893B20A79521E02EB820265
:103F600093400268546B234353632CE00D2A15D20F
:103F700003681D6BD21F02EB820204FA02F225EAEB
:103F800002021A630A8893B20A79D21F02EB8202F4
:103F900093400268146B2343136314E00368DD6AE3
:103FA0000D3A02EB820204FA02F225EA0202DA6218
:103FB0000A8893B20A790D3A02EB820293400268B2
:103FC000D46A2343D362184A184B04689C4206D132
:103FD0000C68122C03D1546844F4800454600468C3
:103FE0009C421CD10B68102B01D0112B17D15368A8
:103FF00043F4000353600968102910D10C490D4A9D
:104000000968B1FBF2F101EB8101490000910099CF
:1040100029B10099491E009100990029F9D180F831
:104020003CC038BC00207047002301400020014004
:10403000A400002040420F0070B504460025002C6B
:1040400003D0206C002610B107E0012070BD20468F
:1040500000F01EF8666484F83C60206C10F0100FCD
:1040600004D0012584F83C60284670BD206C20F403
:10407000885040F0020020642046FEF709FA66648A
:10408000206C20F0020040F001002064EAE700000C
:1040900010B586B00446142101A8FDF71FF9234985
:1040A000206888420FD100BF00200090204800689F
:1040B00040F480701E4908600846006800F4807073
:1040C000009000BF2FE01B49206888422BD100BF21
:1040D000002000901648006840F480601449086091
:1040E0000846006800F48060009000BF00BF00BF79
:1040F000002000900E481438006840F020000C4961
:10410000143908600846006800F02000009000BFE5
:1041100000BF08150190032002900020039001A920
:10412000054800F0DBFF06B010BD00000020014094
:1041300044380240002201400014024090F8202040
:10414000012A07D0022A05D0416A41F48021416248
:1041500001207047006842691143416100207047A7
:1041600070B490F82040D0F800C0DCF808C0012CF2
:1041700008D0022C06D0416A41F48021416270BC13
:10418000012070470CF080640CF000652C4302D1D4
:104190001CF0805F5FD0CCF3016CBCF1020F06D93C
:1041A000416A41F40001416270BC01207047012462
:1041B00004FA0CF41C608B684FF4C0749BB1CD689A
:1041C00004EB0C162B434D6843EAC5030568AB515D
:1041D0004FF4C273066803EB0C130D69F550097DAB
:1041E000012909D00DE00D88CB6804EB0C1643EAD9
:1041F00045530568AB51EBE70168CD5845F4807530
:10420000CD501179D379557941EA036193791B0433
:1042100043EA052319434FF4C675036805EB0C15F3
:1042200059511178D37841EA0361937852781B048D
:1042300043EA022211434FF4C473026803EB0C13E8
:10424000D150016804EB0C100A5842F001020A50E8
:1042500070BC00207047416A41F40011416270BC9B
:104260000120704790F82020012A07D0022A05D0AB
:10427000416A41F480214162012070474248D0F8F0
:10428000002242F00102C0F80022D0F8002222F4FD
:104290007C52C0F80022D0F800224B6A42EA032286
:1042A000C0F800220A7D012302F01F0203FA02F285
:1042B000D0F81C329343C0F81C32CB69D3B9D0F884
:1042C0000C329343C0F80C32B1F80CC04B686CF35D
:1042D0001F43D1F814C000EBCC0CCCF84032B1F83D
:1042E00008C00B686CF31F43D1F814C000EBCC0C72
:1042F000CCF84432CB69012B1AD1D0F80C321343DD
:10430000C0F80C32B1F800C04B686CF31F43D1F811
:1043100014C000EBCC0CCCF84032B1F808C0CB682C
:104320006CF31F43D1F814C000EBCC0CCCF8443232
:104330008B697BB1D0F804321343C0F804320B69A7
:1043400073B1D0F814321343C0F81432096A01294A
:104350000CD010E0D0F804329343C0F80432EEE7FA
:10436000D0F814329343C0F81432EFE7D0F81C129F
:104370001143C0F81C12D0F8001221F00101C0F85E
:10438000001200207047000000640040704710B425
:1043900090F820C0BCF1010F09D0BCF1020F06D08B
:1043A000416A41F48021416210BC0120704739B15B
:1043B000D0F800C0DCF810C01CF0030F7DD006E080
:1043C000D0F800C0DCF80CC01CF0030F7BD04FF419
:1043D000D87C04680CEB011C54F80C4004F0040475
:1043E0009460002C7DD0046854F80C40E4085460BC
:1043F000046854F80CC0CCF3400CC2F80CC04FF465
:10440000DA7C04680CEB011C54F80C4004F00F0437
:104410001461046854F80C40C4F3072494610468E0
:1044200054F80CC04FEA1C4CC2F814C04FF4DC72B4
:10443000D0F800C002EB01125CF802C083F800C0A3
:10444000D0F800C05CF802C04FEA1C2C83F801C011
:10445000D0F800C05CF802C04FEA1C4C83F802C0E0
:10446000D0F800C05CF80220120EDA704FF4DE7251
:10447000D0F800C002EB01125CF802C083F804C05F
:10448000D0F800C05CF802C04FEA1C2C83F805C0CD
:10449000D0F800C05CF802C04FEA1C4C83F806C09C
:1044A000D0F800C05CF80220120EDA71F9B1006891
:1044B000016941F02001016102E00BE003E010E03E
:1044C00010BC00207047416A41F40011416210BCE9
:1044D00001207047416A41F40011416210BC012083
:1044E0007047046854F80C40640D146080E700685D
:1044F000C16841F02001C160DEE72DE9F05F0546AB
:10450000002428684669D0F804908768D0F80CA089
:10451000D0F810B0D0F8188016F0010F54D017F072
:10452000010F17D00121816017F0020F03D0284638
:1045300000F000FC0EE017F0040F02D04FF400640E
:1045400008E017F0080F02D04FF4805402E028462C
:1045500000F0EFFB17F4807F19D029684FF48070CA
:10456000886017F4007F03D0284600F0E5FB0EE0DA
:1045700017F4806F02D044F4005408E017F4006F81
:1045800002D044F4804402E0284600F0D4FB17F443
:10459000803F19D029684FF48030886017F4003FBD
:1045A00003D0284600F0CAFB0EE017F4802F02D09B
:1045B00044F4004408E017F4002F02D044F480349F
:1045C00002E0284600F0B9FB16F0080F07D01AF0F9
:1045D000100F04D044F4007429681020C86016F04D
:1045E000040F4FF0080707D01AF0080F04D028680E
:1045F000C760284600F000FA16F0020F07D02868BE
:10460000C06810F0030F02D0284600F0F7F916F04A
:10461000400F07D01BF0100F04D044F480642968C9
:104620001020086116F0200F07D01BF0080F04D0EF
:1046300028680761284600F047FB16F0100F07D0E6
:104640002868006910F0030F02D0284600F03DFBF7
:1046500016F4003F08D019F0100F05D0296810207B
:104660004860284600F032FB16F4803F07D019F06E
:10467000080F04D028684760284600F060FB16F455
:10468000004F4AD019F0040F44D016F4807F04D0B4
:1046900018F0010F01D044F0010416F4007F04D09B
:1046A00018F0020F01D044F0020416F4806F04D019
:1046B00018F0040F01D044F0040416F4006F29D060
:1046C00018F0700F26D008F07000402815D006DCD6
:1046D000102809D020280AD0302816D10AE0502806
:1046E0000ED0602811D10EE044F008040DE044F033
:1046F00010040AE044F0200407E044F0400404E021
:1047000044F0800401E044F480742868816921F059
:1047100070018161296804204860002C05D0686A16
:10472000204368622846FFF731FEBDE8F09F70B570
:104730000446002C03D094F8200010B104E00120BE
:1047400070BD204600F0A8F82068016821F0020141
:10475000016000F0D9FD0546206840684FF005066D
:1047600010F0020F11D000F0CFFD401B0A2807D92E
:10477000606A40F40030606284F82060012070BDFF
:104780002068406810F0020FEDD12068016841F008
:104790000101016000F0B8FD05462068406810F096
:1047A000010F11D100F0B0FD401B0A2807D9606A43
:1047B00040F40030606284F82060012070BD206801
:1047C000406810F0010FEDD0207E01283FD0206816
:1047D000016821F080010160607E01283DD02068E1
:1047E000016821F040010160A07E01283BD02068D3
:1047F000016821F020010160E07E012839D02068A5
:10480000016841F010010160207F012837D0206845
:10481000016821F008010160607F012835D020681F
:10482000016821F004010160E168A0686269084341
:104830002169114308436168491E08432168C86122
:1048400000206062012084F82000002070BD2068F4
:10485000016841F080010160BEE72068016841F015
:1048600040010160C0E72068016841F0200101605B
:10487000C2E72068016821F010010160C4E72068E8
:10488000016841F008010160C6E72068016841F055
:1048900004010160C8E7000010B586B00446142189
:1048A00001A8FCF71BFD4E492068884241D14D48C4
:1048B0000068401C4B4908600846006801280FD179
:1048C00000BF002000904848006840F00070464952
:1048D00008600846006800F00070009000BF00BF4C
:1048E00000BF0020009040481038006840F00800E9
:1048F0003D49103908600846006800F00800009043
:1049000000BF00BF0320019002200290002003900E
:10491000032004900920059001A9344800F0DEFB33
:1049200000220621142000F041FF142000F030FF87
:1049300054E02F492068884250D100BF00200090E9
:104940002948006840F080602749086008460068F0
:1049500000F08060009000BF00BF22480068401C4B
:10496000204908600846006801280FD100BF0020D8
:1049700000901D48006840F000701B490860084620
:10498000006800F00070009000BF00BF00BF002072
:10499000009015481038006840F0020012491039A4
:1049A00008600846006800F00200009000BF00BFE9
:1049B00060200190022002900020039003200490C8
:1049C0000920059001A90B4800F088FB0022062170
:1049D000402000F0EBFE402000F0DAFE06B010BDF3
:1049E000006400403800002040380240000C0240C3
:1049F00000680040000402407047000010B58AB013
:104A0000044601AB03AA00212046FFF7C0FCA448DE
:104A1000844275D10398B0F5A46F5CD005DCA0F298
:104A2000052080B3012878D106E0A0F221500028AB
:104A30005BD0012871D165E09A48408E01B2994857
:104A400041879DF805009DF8041040EA0120954932
:104A500048869DF807009DF8061040EA012001B243
:104A6000904881869DF809009DF8081040EA0120D1
:104A700001B28C48C1869DF80A1080F838100620D3
:104A80000CF03AF94AE0FFE78648008D01B285480C
:104A900001869DF805009DF8041040EA0120814937
:104AA00008859DF807009DF8061040EA012001B234
:104AB0007C4841859DF809009DF8081040EA0120D6
:104AC00001B2784881859DF80A1080F82E100520E3
:104AD0000CF012F922E00822734901A80EF056FAF0
:104AE0000FF022F97149086018E008226E49083178
:104AF00001A80EF04BFA0FF017F96D4908600DE0B0
:104B00000DE00AE008226849103101A80EF03EFAD3
:104B10000FF00AF96749086000E000BFBDE0664891
:104B200084427CD140F203220398811A90420DD036
:104B300005DCA0F2012038B1012871D105E001297E
:104B400005D00E296CD14EE000BF00BF00BF039816
:104B5000401E5A4908700846007800EB8000514911
:104B600031F8100000B25549097801EB81014D4A36
:104B700002EB410108819DF805009DF8041040EA10
:104B800001204E49097801EB810122F811009DF8BE
:104B900007009DF8061040EA012000B24749097855
:104BA00001EB810102EB410148809DF809009DF86D
:104BB000081040EA012000B24049097801EB810168
:104BC00002EB410188809DF80A003C49097801EB1D
:104BD000810102EB4101887138490978491CC8B24A
:104BE0000CF08AF858E09DF804009DF8051040EAA2
:104BF000012000EE100AB8EEC00ADFED310A80EEA7
:104C0000201ABDEEC10A10EE100A00B22D4908802C
:104C10009DF806009DF8071040EA012001E03CE005
:104C200039E000EE100AB8EEC00ADFED250A80EE8A
:104C3000201ABDEEC10A10EE100A00B221494880C8
:104C40009DF808009DF8091040EA012000EE100AC6
:104C5000B8EEC00ADFED1A0A80EE201ABDEEC10AD6
:104C600010EE100A00B2174988809DF80A009DF8DE
:104C70000B1040EA012000EE100AB8EEC00ADFED8A
:104C8000100A80EE201ABDEEC10A10EE100A00B222
:104C90000C49C88000E000BF00BF0AB010BD000092
:104CA000C40E0020043200200E3600203C010020FB
:104CB0004001002044010020EC0E0020540100209F
:104CC0000000C8423001002070477047704770B53F
:104CD000044694F82000012805D0606A40F40020C2
:104CE0006062012070BD022084F820002068016805
:104CF00021F00101016000F007FB054620684068D3
:104D000010F0010F12D000F0FFFA401B0A2808D95A
:104D1000606A40F400306062052084F820000120C1
:104D200070BD2068406810F0010FECD10020606277
:104D300070BD704770477047704770477047704745
:104D400010B50446002C02D0607910B106E00120B5
:104D500010BD00202071204600F006F8022060718E
:104D600001206071002010BD08B50A4A0168914217
:104D70000FD100BF002100910749096841F480511B
:104D8000054A11601146096801F48051009100BF85
:104D900000BF08BD003002403038024090F83510A6
:104DA000022903D08021416501207047052180F848
:104DB00035100068016821F0010101600020704792
:104DC0002DE9F84304464FF00008CDF800807648FE
:104DD0004FF416510068B0FBF1F7A56D2E6894F8FA
:104DE0005C00082101FA00F0304211D0206802680E
:104DF00012F0040F0CD0026822F00402026094F852
:104E00005C0001FA00F0A860606D40F00100606590
:104E100094F85C004FF0010909FA00F0304209D023
:104E20002168496911F0800F04D0A860606D40F0DE
:104E30000200606594F85C1004208840304209D07C
:104E40002168096811F0020F04D0A860606D40F07D
:104E50000400606594F85C1010208840304224D033
:104E60002168096811F0080F1FD0A8602068016848
:104E700011F4802F0DD0006810F4002F04D0A16C25
:104E800099B12046884710E0216C71B120468847CF
:104E90000BE0016811F4807F03D1016821F0080163
:104EA0000160216C09B12046884794F85C102020ED
:104EB0008840304251D02168096811F0100F4CD061
:104EC000A86094F8350005280DD02068016811F419
:104ED000802F32D0006810F4002F29D0E16B59B335
:104EE0002046884739E02068016821F016010160FA
:104EF0002068416921F080014161206C08B9A06CF3
:104F000020B12068016821F00801016094F85C007C
:104F10003F2101FA00F0A86084F8348084F83590CD
:104F2000216D00293ED001B02046BDE8F04308477E
:104F3000616C09B1204688470FE0016811F4807F59
:104F400007D1016821F01001016084F8348084F8F1
:104F50003590E16B09B120468847606D002821D06B
:104F6000606D10F0010F15D0052084F83500206821
:104F7000016821F0010101600098401C0090B842D6
:104F800004D82068006810F0010FF5D184F834804F
:104F900084F83590E16C002904D001B02046BDE8CA
:104FA000F0430847BDE8F883A40000202DE9F04154
:104FB000044600F0A9F90546DCB1002684F8346007
:104FC000022084F835002068016821F001010160A9
:104FD0002068006810F0010F13D000F095F9401B15
:104FE000052809D920206065032084F83500BDE834
:104FF000F0810120BDE8F0812068006810F0010F09
:10500000EBD121680868234A1040A3686268D4F88D
:1050100010C01A43E36843EA0C031A4363691A4356
:10502000A3691A43E3691A43236A1A431043626A65
:10503000042A03D1236BE26A1A43104308602068F4
:10504000406920F00701606A40EA01050127042851
:105050000ED1A06A0543E06A50B12046FEF7C6FCB7
:1050600030B14020606584F835700120BDE8F081E2
:10507000206845612046FEF79FFC94F85C103F22B3
:1050800002FA01F18160666584F835700020BDE8A0
:10509000F08100003F8010F070B5044600F034F954
:1050A0000546B4F1FF3F02D004480078044400F004
:1050B0002BF9401BA042FAD370BD0000F805002078
:1050C0007047000010B504490A68024202D0086027
:1050D000FFF7F6FF10BD0000143C01402DE9F84F2A
:1050E0000022DFF80082DFF80092DFF800A24FF024
:1050F000030E0F27012303FA02F50B682B40AB4286
:105100007DD1D1F804C0BCF1020F02D0BCF1120F66
:1051100012D14FEAD20C00EB8C0CDCF82060540763
:10512000E40E07FA04FB26EA0B06D1F810B00BFADE
:1051300004F43443CCF8204006684FEA420C0EFADF
:105140000CF4A64391F804B00BF0030B0BFA0CFB24
:105150004BEA060606604E68012E05D0022E03D0EB
:10516000112E01D0122E11D18668A643D1F80CB0B1
:105170000BFA0CFB4BEA06068660466826EA050534
:105180000E79C6F30016964035434560C56825EA9A
:1051900004048D6805FA0CFC4CEA040CC0F80CC041
:1051A000D1F804C01CF0805F7DD0D8F800C04CF46A
:1051B000804CC8F800C0D8F800C00CF4804CCDF882
:1051C00000C022F0030C0CF1804404F59834D4F8AC
:1051D00008C895072D0F07FA05F62CEA0606A0F178
:1051E000804CBCF5003C64D0A0F1804CBCF5013C87
:1051F00062D0A0F1804CBCF5023C60D000E052E0EF
:10520000A0F1804CBCF5033C5CD0A0F1804CBCF517
:10521000043C5AD0A0F1804CBCF5053C58D0A0F11C
:10522000804CBCF5063C56D0A0F1804CBCF5073C48
:1052300054D04FF0080C0CFA05FC4CEA060CC4F8EC
:1052400008C8D9F800C02CEA030C4C6814F4803F5D
:1052500001D04CEA030CC9F800C0254CD4F800C0BA
:105260002CEA030C4D6815F4003F01D04CEA030C06
:10527000C4F800C0DAF800C02CEA030C4C6814F43F
:10528000801F01D04CEA030CCAF800C0194CD4F8B6
:1052900000C02CEA030C4D6815F4001F01D04CEA45
:1052A000030CC4F800C0521C102AFFF423AFBDE861
:1052B000F88F4FF0000CBEE74FF0010CBBE74FF04A
:1052C000020CB8E74FF0030CB5E74FF0040CB2E75F
:1052D0004FF0050CAFE74FF0060CACE74FF0070CB2
:1052E000A9E7000044380240003C0140083C01406E
:1052F000043C01400C3C0140002A01D08161704710
:10530000090481617047000001488068704700000F
:10531000F805002070B50446002C04D094F83D0038
:10532000002510B106E0012070BD84F83C502046F5
:1053300000F0BCF8242084F83D002068016821F0CA
:105340000101016001F0F4F8544B6168994203D8FF
:105350005349884203D304E05249884201D20120D4
:1053600070BD5149B0FBF1F12268D2F804C02CF0B5
:105370003F0C4CEA010CC2F804C062689A4201D8A2
:105380004A1C07E04FF4967251434FF47A72B1FB16
:10539000F2F14A1C2168D1F820C02CF03F0C42EAFF
:1053A0000C020A626168994210D84900401EB0FBA5
:1053B000F1F2521CC2F30B02042A01D2042026E0AF
:1053C000B0FBF1F0401CC0F30B0020E0A268002A03
:1053D00050D001EBC10303EB0113A0F1010CBCFBA6
:1053E000F3F35B1C43F480431B051B0D4AD0002ADA
:1053F0004AD001EBC10202EB0111401EB0FBF1F0FB
:10540000401CC0F30B0040F4804040F40040216891
:10541000CA6922F0FF0222F44F421043C861216A98
:10542000E06901432068026822F0C0021143016074
:10543000E168206901432068826822F0FF0222F4BB
:10544000034211438160A169606901432068C26819
:1054500022F0FF021143C1602068016841F00101A0
:1054600001602564202084F83D00256384F83E50C7
:10547000002070BD01EB4103A0F1010CBCFBF3F374
:105480005B1CB1E70120C2E701EB4101401EB0FB0C
:10549000F1F0401CC0F30B00B7E70000A08601004C
:1054A00080841E0000093D0040420F0010B586B008
:1054B0000446142101A8FBF711FF734920688842B4
:1054C00030D100BF002000907048006840F002001A
:1054D0006E4908600846006800F00200009000BFB6
:1054E00000BF4FF440700190122002900120039001
:1054F000032004900420059001A96548FFF7EEFD04
:1055000000BF0020009061481030006840F4001097
:105510005E49103108600846006800F400100090F1
:1055200000BFAFE05B492068884259D100BF00202E
:1055300000905648006840F0200054490860084632
:10554000006800F02000009000BF00BF0320019021
:105550001220029001200390032004900420059063
:1055600001A94D48FFF7BAFD00BF00200090474851
:105570001030006840F4800044491031086008464B
:10558000006800F48000009000BF00BF4348444919
:1055900008604FF060604860402141488160002110
:1055A000C1604FF480610161002141618161C1618D
:1055B0004FF40031016200214162FFF7F7FC08B1AE
:1055C000FEF738FC00BF36486063846300BF35488F
:1055D0000068406840F4006032490968486051E062
:1055E0003149206888424DD100BF002000902748F3
:1055F000006840F00400254908600846006800F093
:105600000400009000BF00BF00BF002000900846CB
:10561000006840F0010008600846006800F00100E2
:10562000009000BF00BF4815019012200290012099
:105630000390032004900420059001A91B48FFF764
:105640004DFD4FF4807001901220029001200390D4
:10565000032004900420059001A91548FFF73EFDA2
:1056600000BF0020009009481030006840F400009E
:105670000649103108600846006800F400000090F8
:1056800000BF00BF06B010BD0054004030380240DB
:10569000000402400058004000140240B86002407C
:1056A00010100020680F0020005C0040000802403D
:1056B000000002400248816802781144816070470E
:1056C000F805002010B50B48016841F40071016035
:1056D000016841F480610160016841F480710160FA
:1056E000032000F097F80F2000F006F800F026F8ED
:1056F000002010BD003C024070B504460D4D4FF433
:105700007A712878B1FBF0F00B490968B1FBF0F031
:1057100001F062FC08B1012070BD102C07D20022FC
:105720002146501E00F042F86C60002070BD012040
:1057300070BD0000F8050020A400002008B500BFDF
:10574000002000901148006840F480400F49086034
:105750000846006800F48040009000BF00BF00BF12
:1057600000200090081F006840F08050091F08606A
:105770000846006800F08050009000BF00BF002283
:105780000F21901E00F012F808BD000044380240BE
:1057900000280ADB00F01F01012202FA01F1400992
:1057A000800000F1E020C0F80011704710B4184BE1
:1057B0001B68C3F30223C3F1070CBCF1040F01D92A
:1057C0004FF0040C1C1D072C01D2002300E0DB1E4F
:1057D000012404FA0CFCACF1010C0CEA0101994023
:1057E00004FA03F35B1E1A401143002806DB00F1A4
:1057F000E020090180F8001410BC704700F00F0091
:1058000000F1E020090180F8141D10BC7047000071
:105810000CED00E000F00700064A11684FF6FF03A8
:10582000194041EA002040F0FD7040F080601060B7
:10583000704700000CED00E07047006841620020F6
:10584000704730B40368586A00291BD0D3F828C0C9
:1058500000EB1C4C00200129A1F101014FF48274DE
:1058600008D004EB80055D590CEB154C401CC0B210
:105870008842F6D304EB81014CEA0240585030BC18
:105880000020704740EA02409862F8E710B50446ED
:10589000D4F8040409F034F810BD70B504460D4680
:1058A000C5EBC50304F13C0101EB8301CA6829463D
:1058B000D4F8040408F074FF70BD70B504460D46BA
:1058C000C5EBC50304F5FE7101EB8301CA682946E7
:1058D000D4F8040408F0CFFF70BD10B50446D4F826
:1058E000040409F00FF810BD70B5044611F0800FE4
:1058F00001F00F00C0EBC00104EB81014FF0010289
:105900004FF0000502D03C314A7002E001F5FE7113
:105910004D70087094F8BC03012808D084F8BC23AB
:10592000206809F047FC84F8BC53002070BD0220B9
:1059300070BD70B5044601F00F026068824201D963
:10594000012070BD01F00F00C0EBC00011F0800F0E
:1059500004EB80004FF001034FF0000503D000F18D
:105960003C014B7002E000F5FE714D708D700A70C5
:1059700094F8BC03012808D084F8BC33206809F0EF
:105980000BFE84F8BC53002070BD022070BD01F0F6
:105990000F01C1EBC10100EB8100D0F81402704788
:1059A00070B5044611F0800F01F00F00C0EBC0018C
:1059B00004EB81014FF0010C4FF0000503D03C31A6
:1059C00081F801C002E001F5FE714D7008708A6037
:1059D000CB704A7802B1C880022B00D10D7194F8C7
:1059E000BC03012808D084F8BCC3206809F01CFB64
:1059F000284684F8BC5370BD022070BD10B50C461B
:105A000004F00F0CCCEBCC0100EB810101F5FE7131
:105A1000CA604B6100238B614B7081F800C0036941
:105A2000012B00D10A6114F00F0F05D0027C006831
:105A300009F00DFE002010BD027C006809F0E6FCB4
:105A4000F8E770B504460D46616805F00F0088421E
:105A500001D9012070BD15F0800F4FF000064FF006
:105A6000010206D0C0EBC00104EB81013C314A7059
:105A700006E0C5EBC50104EB810101F5FE714E7036
:105A80008A70087094F8BC03012808D084F8BC23FD
:105A9000206809F0ADFD15F00F0F02D007E00220DD
:105AA00070BD217C04F57172206809F045FD84F811
:105AB000BC63002070BD10B50C4604F00F0CCCEB9D
:105AC000CC0100EB81013C31CA604B6100238B614A
:105AD00001234B7081F800C00369012B00D10A61DA
